:020000040800F2
:100000009805002005010008831F00080B1900084F
:10001000811F00089D0100088124000800000000E5
:10002000000000000000000000000000871F000822
:10003000E501000800000000851F0008891F000876
:100040001F0100081F0100081F0100081F01000810
:100050001F0100081F0100081F0100081F01000800
:100060001F0100081F0100081F0100081F010008F0
:100070001F0100081F0100081F0100081F010008E0
:100080001F0100081F0100081F0100081F010008D0
:100090001F0100081F0100081F0100081F010008C0
:1000A0001F0100081F0100081F0100081F010008B0
:1000B0001F0100081F0100081F0100081F010008A0
:1000C0001F0100081F0100081F0100081F01000890
:1000D0001F010008752400081F0100081F01000807
:1000E0001F0100081F0100081F010008DFF810D0E1
:1000F00000F042F80048004751260008AFF30080A6
:10010000980500200648804706480047FEE7FEE7BE
:10011000FEE7FEE7FEE7FEE7FEE7FEE7FEE7FEE7B7
:10012000EB1F0008ED000008D2B201E000F8012B3F
:10013000491EFBD270470022F6E710B513460A4667
:1001400004461946FFF7F0FF204610BD30B50B46B8
:10015000014600202022012409E021FA02F59D42F7
:1001600005D303FA02F5491B04FA02F52844151ECB
:10017000A2F10102F1DC30BD064C074D06E0E0685B
:1001800040F0010394E8070098471034AC42F6D3DE
:10019000FFF7B0FFDC270008FC270008FEE700009F
:1001A00010B54FF480710D4800F090F90C49002211
:1001B00018B10A608A604A6010BD0868401C086077
:1001C0001E2808DB486808B10A6010BD012088605D
:1001D000C1E9002010BD8A6010BD00000008014088
:1001E00000000020704772B6FEE710B590F82110AD
:1001F0000022022905D00421816380F820200120FB
:1002000010BD01680B6823F00E030B6001680B68DA
:1002100023F001030B6090F84030C46B012101FA18
:1002200003F3636080F8211080F82020104610BD91
:1002300010B590F821100024022903D00421816315
:1002400001243DE001680A6822F00E020A6001689C
:100250000A6822F001020A601A4A0168914201D13B
:10026000012121E0174A1432914201D110211BE0F3
:10027000144A2832914201D1891515E0114A3C32C5
:10028000914201D189140FE00E4A5032914202D1BD
:100290004FF4803108E00B4A6432914202D14FF4AE
:1002A000801101E04FF08071064A083A5160012147
:1002B00080F82110002180F82010416B01B188479F
:1002C000204610BD0800024070B5044600F010F949
:1002D0000546601C02D004480078044400F008F988
:1002E000401BA042FAD370BD0C0000202DE9F84F4E
:1002F000DFF8B8910024A9F1040B23460F2709F178
:10030000040AABF1040EC9E00125A5402A40AA4227
:100310007DD1674ED1F804C0ACEB0608B44532D0AD
:1003200014DCBCF1030F3AD009DCBCF1000F2AD079
:10033000BCF1010F1CD0BCF1020F31D11DE0BCF1AA
:10034000110F17D0BCF1120F2AD119E0B8F5881F90
:1003500019D006DCB8F5803F15D0B8F5801F1FD145
:1003600011E0B8F5001F0ED0B8F5041F18D10AE04F
:10037000CB6815E0CB681B1D12E0CB6808330FE09B
:10038000CB680C330CE08B682BB1012B4FF00803CA
:1003900003D0456104E0042302E0056100E000238E
:1003A000FF2A01D8064601E000F104064FEA840561
:1003B00001D9A5F12005D6F8008007FA05FC28EA46
:1003C0000C0803FA05F548EA0508C6F800804D68F0
:1003D000ED0062D5374DAE6946F00106AE61AD69FC
:1003E00024F0030605F001050095334D06EB050CDE
:1003F000DCF80850A607360F07FA06F825EA0805C4
:10040000DFF8B880404503D14FF0000817E044E022
:10041000DFF8AC80404502D14FF001080FE0DFF873
:10042000A480404502D14FF0020808E0DFF8988030
:10043000404502D14FF0030801E04FF0040808FAEC
:1004400006F848EA0508CCF808804D68D9F800603D
:10045000ED024D4601D5164300E096432E604D68EF
:10046000DAF80060AD02554601D5164300E0964328
:100470002E604D68DBF80060AD035D4601D5164384
:1004800000E096432E604D68DEF80060ED0375468F
:1004900001D5164300E096432E60641C0D682A4681
:1004A000E5407FF431AFBDE8F88F0000080401405B
:1004B000000011100010024000000140000801403F
:1004C000000C014000100140001401408068084009
:1004D00000D001207047C26821EA02030A4043EAC3
:1004E0000241016170470AB1016170470904FBE7ED
:1004F00001488068704700000C00002070B50400BF
:1005000025D094F83D00002520B984F83C502046C1
:1005100000F0E0F9242084F83D002068016821F013
:10052000010101602068016841F400410160206818
:10053000016821F40041016000F032FB4D4A61681E
:10054000914201D84C4900E04C49884201D2012037
:1005500070BD4B492368B0FBF1F15E6826F03F06A1
:100560000E435E606368934206D94FF49673594315
:100570004FF47A73B1FBF3F12368491C1E6A26F02D
:100580003F06314319626168914210D84900401E0C
:10059000B0FBF1F2521CC2F30B02042A01D2042078
:1005A00022E0B0FBF1F0401CC0F30B001CE0A2689D
:1005B000F2B301EBC10303EB0116431EB3FBF6F3E9
:1005C0005B1C43F480431B0549D092B301EBC1028D
:1005D00002EB0111401EB0FBF1F0401CC0F30B0018
:1005E00040F4804040F400402168CA694CF6FF7333
:1005F0009A431043C861D4E9071001432068026898
:1006000022F0C00211430160D4E9030101432068D4
:10061000826848F2FF339A4311438160D4E90501AF
:1006200008432168CA6822F0FF021043C86001E055
:100630000EE016E02068016841F0010101602564C8
:10064000202084F83D00256384F83E50002070BDD2
:1006500001EB4106431EB3FBF6F35B1CB3E701203D
:10066000C2E701EB4101401EB0FBF1F0401CC0F3BA
:100670000B00B7E7A086010080841E0000093D0042
:1006800040420F002DE9FF4F83B00025DDE91079CE
:100690009A4693460446DDF848800095FFF728FF08
:1006A000064694F83D0020287CD119230122854973
:1006B0002046009601F0C0F90028F5D194F83C00DE
:1006C00001286FD0012084F83C0020680168C90728
:1006D00003D1016841F0010101602068016821F443
:1006E00000610160222084F83D00402084F83E0033
:1006F00025646762A4F82A90608D20857248E062C4
:10070000CDE9008653465A462046049901F016F971
:1007100000287DD1208DDFF8B491202768B1012811
:1007200014D00228206801681ED041F48061016065
:100730002068416980690090B6E02068416981695C
:100740000091016841F400710160ADE0206801682A
:1007500021F48061016072B620684169816900916D
:10076000016841F400710AE041F40061016072B671
:100770002068416981690091016821F4806101600C
:1007800062B691E0032868D801280CD002284346BD
:100790004FF000024946204600960FD001F04CF978
:1007A000B0BB10E08BE032464146204601F0EAF94A
:1007B00070BB20680069616A08706CE001F03CF968
:1007C00030BB72B634E02068016821F480610160BA
:1007D00072B620680069616A0870606A401C6062D5
:1007E000208D401E2085608D401E6085384846F271
:1007F000A8110068B0FBF1F0C0EBC00000EB800076
:100800000090401E009008D020684069C04300E07E
:1008100029E040070CD50098F3E744F8305F677390
:10082000A573206940F02000206162B625731AE0AC
:100830002068016841F40071016020680069616A04
:100840000870606A401C6062218D491E2185618D9F
:10085000491E618562B621681BE03246414620464A
:1008600001F090F918B1012007B0BDE8F08F2068C1
:100870000069616A0870606A401C6062218D491ECF
:100880002185618D491E618521684A69D2435207DD
:100890000AD409690170606A401C6062208D401EA4
:1008A0002085608D401E6085208D00287FF46AAF12
:1008B00084F83D7084F83E5084F83C50D4E7022020
:1008C000D2E70000020010000000FFFF040001005A
:1008D0001800002010B586B000210091019102910E
:1008E000039100681349884222D1134CA06940F05B
:1008F0000800A061A069694600F0080004904FF468
:100900004070009012200190032003900B48FFF7E5
:10091000EDFC0B48416841F0E06141F002014160AB
:10092000E06940F40010E061E06900F40010049018
:1009300006B010BD0054004000100240000C014001
:1009400000000140024881680278114481607047CC
:100950000C000020074810B5016841F0100101604B
:10096000032000F075F80F2000F006F800F024F8DE
:10097000002010BD0020024070B50D4D04464FF41C
:100980007A712878B1FBF0F00A490968B1FBF0F000
:1009900000F0DDFA48B9102C07D200222146501E83
:1009A00000F036F800206C6070BD012070BD0000C2
:1009B0000C000020180000200C4808B5816941F0A7
:1009C00001018161816901F001010091C16941F07A
:1009D0008051C161C06900F08050009004484168B6
:1009E00021F0E06141F00071416008BD001002405B
:1009F00000000140002809DB00F01F0201219140A6
:100A00004009800000F1E020C0F8001170470000AC
:100A1000F0B40E4B1B680C46C3F30223C3F1070569
:100A2000042D00D90425191D072901D2002300E057
:100A3000DB1E012606FA05F1491E214099409E4021
:100A4000761E16403143F0BC01F02CBD0CED00E0E9
:100A5000064900F0070208684FF6FF03184040EA15
:100A60000220034A10430860704700000CED00E0CC
:100A70000000FA052DE9F0470F46050061D0434E0E
:100A8000306800F00700B84209D2306820F0070053
:100A900038433060306800F00700B84251D1286810
:100AA0003B4C810712D5400703D5606840F4E060F5
:100AB00060602878000703D5606840F4605060608B
:100AC0006068A96820F0F000084360602878C007DB
:100AD00028D06868012810D02168022810D0890722
:100AE00000292EDA616821F0030101436160FFF7FC
:100AF000FFFC804641F288390DE021688903EFE769
:100B00008901EDE7FFF7F4FCA0EB0801494502D9A4
:100B10000320BDE8F0876068696800F00C00B0EB66
:100B2000810FEFD1306800F00700B8420BD9306870
:100B300020F0070038433060306800F00700B8420A
:100B400001D00120E5E72878400705D56068E9680D
:100B500020F4E060084360602878000706D56068EC
:100B6000296920F4605040EAC100606000F038F864
:100B70006168084AC1F30311515CC8400649086026
:100B800006480068FFF7F8FE0020C2E70020024098
:100B900000100240C22700081800002010000020AA
:100BA0000448054900684968044AC1F30221515CC0
:100BB000C84070471800002000100240D2270008EB
:100BC0000448054900684968044AC1F3C221515CE0
:100BD000C84070471800002000100240D2270008CB
:100BE0000E4A51680E4801F00C03042B11D0082B5B
:100BF0000FD10C48C1F38343C903C05C0AD55168C7
:100C0000084AC1F34041921E515C054A5043B0FB73
:100C1000F1F070470449484370470000001002405B
:100C200000127A00B227000800093D002DE9F84FB4
:100C3000040070D02078C04DC00749D06868C0F368
:100C40008100012807D06868C0F38100022809D11B
:100C50006868C00306D52868800339D56068002815
:100C6000E7D035E06068B0F5803F0BD010B1B0F54B
:100C7000A02F11D0286820F480302860286820F444
:100C8000802002E0286840F480302860606890B1DD
:100C9000FFF72EFC06460AE0286840F48020286012
:100CA000F0E700BFFFF724FC801B642873D8286896
:100CB0008003F7D50CE0FFF71BFC064605E000BFFC
:100CC000FFF716FC801B6428F0D828688003F7D44F
:100CD00020789A4E80074FF001094FF0000839D56F
:100CE000686810F00C0F07D06868C0F38100022814
:100CF00009D16868C00306D42868800714D5206924
:100D0000012808D110E02069B0B1C6F80090FFF7C3
:100D1000EFFB074605E00AE1FFF7EAFBC01B0228EC
:100D2000C4D828688007F7D52868616920F0F800E2
:100D300040EAC10028600DE0C6F80080FFF7D8FB4C
:100D4000074604E0FFF7D4FBC01B022823D828681D
:100D50008007F7D4207800072CD57948A169D9B14C
:100D6000C0F80090FFF7C4FB074604E0FFF7C0FBA4
:100D7000C01B02280FD8686A8007F7D571484FF466
:100D8000FA510068B0FBF1F0009000BF0098411EDE
:100D90000091FAD20EE080E0C0F80080FFF7A8FBD7
:100DA000074604E0FFF7A4FBC01B022875D8686A59
:100DB0008007F7D42078400760D5E8690027C00095
:100DC00008D4E86940F08050E861E869012700F044
:100DD000805000905C480168C90513D401688346BF
:100DE00041F480710160FFF783FB824606E000BF9B
:100DF000FFF77EFBA0EB0A0064284ED8DBF800006A
:100E0000C005F5D5E06801280AD008B1052813D03F
:100E1000286A20F001002862286A20F0040002E01D
:100E2000286A40F001002862E06841F2883B98B1EE
:100E3000FFF75EFB82460BE0286A40F00400286260
:100E4000EEE700BFFFF754FBA0EB0A0159455AD863
:100E5000286A8007F6D50CE0FFF74AFB824605E0DA
:100E6000FFF746FBA0EB0A0159454CD8286A8007DA
:100E7000F6D41FB1E86920F08050E861E06988B3DA
:100E80006968C1F38101022944D00228C6F8608054
:100E900004D0FFF72DFB044638E034E0FFF728FBD1
:100EA000074604E0FFF724FBC01B02282BD8286864
:100EB0008001F7D4206AB0F5803F05D16868A16849
:100EC00020F4003008436860D4E9080108436968E9
:100ED00021F4741108436860C6F86090FFF708FBBE
:100EE000044606E025E000BFFFF702FB001B0228D6
:100EF00009D828688001F7D51BE000BFFFF7F8FA92
:100F0000001B022802D90320BDE8F88F2868800161
:100F1000F4D40EE00128F7D06868226A00F480312A
:100F2000914204D1616A00F47010884201D001201E
:100F3000EAE70020E8E7000000100240000042421B
:100F4000800442421800002000700040704710B535
:100F5000401EB0F1807F01D3012010BD4FF0E0248E
:100F600060610F21601701F09DFA0020A061072049
:100F70002061002010BD10B5FFF7E8FF10BD000094
:100F800070B590F83C20012A26D0012480F83C401E
:100F9000022280F83D2003685A689D6822F070069E
:100FA0000A6832435A600D4B02689A4208D0B2F187
:100FB000804F05D00A4B9A4202D00A4B9A4204D184
:100FC000496825F080031943916080F83D40002175
:100FD00080F83C10084670BD022070BD002C014016
:100FE000000400400008004010B5040003D094F84D
:100FF0003D0010B107E0012010BD002084F83C0046
:10100000204600F01FF8022084F83D00211D2068D2
:1010100000F0ECFF012084F8460084F83E0084F8DC
:101020003F0084F8400084F8410084F8420084F8CE
:10103000430084F8440084F8450084F83D00002013
:1010400010BD000008B500680649884208D106486E
:10105000C16941F00201C161C06900F00200009065
:1010600008BD0000000400400010024070B50446B6
:1010700090F83C000025012817D0012684F83C6038
:10108000022084F83D002068826822F0770222F472
:101090007F4282600868502838D00DDC20284FD06D
:1010A00005DC90B3102811D14AE0022070BD302831
:1010B00046D040280AD13BE060282FD070280DD0C0
:1010C000B0F5805F03D0B0F5005F12D0012584F841
:1010D0003D60002084F83C00284670BDCB68D1E913
:1010E0000121206800F0C5FF2068816841F0770188
:1010F00009E0CB68D1E90121206800F0BAFF20683F
:10110000816841F480418160E1E719E0CA6849687B
:10111000206801F063F85021206806E0CA68496839
:10112000206801F06CF86021206800F0ACFFCEE789
:10113000CA684968206801F051F840212068F4E746
:10114000226801461046F0E72DE9F0410D46040003
:1011500003D094F83D0018B108E00120BDE8F0810B
:10116000002084F83C00204600F040F8022084F87B
:101170003D002068816844F2070291438160211D8F
:10118000206800F033FF226890689169166A2B6826
:10119000AF69034340F20330814341EA0721A86865
:1011A000EF6908434FF6FC418843E96840EA0720AD
:1011B000014328692F6A000140EA07300843696843
:1011C0006D6926F0220646EA0515294393602268D8
:1011D000906154F8460B0162012004F81F09E07584
:1011E0002076E0762077A0750020B7E700B585B0BF
:1011F0000021009101910291039101681A48B1F117
:10120000804F1BD0194A914216D1C16941F00401A7
:10121000C161C16901F004010491816941F00801D3
:1012200081618069694600F008000490C020009048
:101230000F4800BFFFF75AF805B000BDC16941F083
:101240000101C161C16901F001010491816941F0AD
:10125000040181618069694600F004000490032064
:1012600000900448E6E7000000100240000800403B
:10127000000C01400008014070B590F83E60044643
:1012800090F83F5090F8423090F84320022021B16E
:1012900004290ED0012E1BD114E0012E18D1012BF0
:1012A00016D184F83E0084F8420001220021206813
:1012B00020E0012D0CD1012A0AD184F83F0084F8E6
:1012C000430014E0012D03D1012B01D1012A01D0EB
:1012D000012070BD84F83E0084F83F0084F842008D
:1012E00084F8430001220021206800F0B5FE0122AD
:1012F0000421206800F0B0FE2068016841F001017F
:101300000160002070BD000000B585B00021009193
:1013100001910291039100680B49884211D10B4859
:10132000816941F0040181618069694600F004002F
:101330000490C02000900220019003900448FEF722
:10134000D5FF05B000BD00000004004000100240C1
:101350000008014070B5044690F83C0000260D4698
:1013600001280FD0012084F83C006AB1042A1DD066
:10137000082A2FD00C2A3FD00126002084F83C00F8
:10138000304670BD022070BD206800F085FE2068E8
:10139000816941F0080181612068816921F00401BF
:1013A0008161206881692A69114311E0206800F099
:1013B0009BFE2068816941F4006181612068816938
:1013C00021F480618161206881692A6941EA0221F2
:1013D0008161D2E7206800F0B3FE2068C16941F066
:1013E0000801C1612068C16921F00401C161206860
:1013F000C1692A69114311E0206800F0CDFE206820
:10140000C16941F40061C1612068C16921F4806152
:10141000C1612068C1692A6941EA0221C161ACE762
:1014200010B5040003D094F83D0010B107E001208E
:1014300010BD002084F83C00204600F01EF8022079
:1014400084F83D00211D206800F0D0FD012084F8C3
:10145000460084F83E0084F83F0084F8400084F899
:10146000410084F8420084F8430084F8440084F882
:10147000450084F83D00002010BD704710B50446BB
:10148000022249B104290ED0082913D094F8410052
:10149000012816D0012010BD94F83E000128F9D192
:1014A00084F83E200FE094F83F000128F2D184F840
:1014B0003F2008E094F840000128EBD184F8402058
:1014C00001E084F841200122206800F0C5FD0F49A9
:1014D0002068884203D1426C42F400424264206892
:1014E000884208D0B0F1804F05D00949884202D027
:1014F0000849884204D1816801F00701062903D018
:10150000016841F001010160002010BD002C014084
:10151000000400400008004070477047F8B50168BB
:1015200004460868CA684B6910F00F0F4FF00005B9
:1015300059D003F0010602F49077374365D0C10714
:1015400005D0D10503D5616C41F00101616441070B
:1015500005D5D90703D0616C41F0020161648107B0
:1015600005D5D90703D0616C41F00401616401071E
:1015700007D502F02001314303D0616C41F008012E
:101580006164616C00293AD0800604D5900602D5CA
:10159000204600F075FE20684069616CC0F3801041
:1015A000090700D460B3204600F043FE206840697C
:1015B000400621D52068143050E8001F21F040017A
:1015C00040E80012002AF5D1E06BA8B16D494163F3
:1015D000E06BFEF72DFE002811D0E06B416B01B0EF
:1015E000BDE8F040084783060FD593060DD5204689
:1015F000BDE8F84000F044BE2046FFF78EFFF8BD7E
:101600002046FFF78AFF6564F8BD266B2023012E74
:101610007CD1C6067AD5D60678D508684868009089
:1016200048694FF00206400640D5E16B0868406803
:101630000004000CE8D0A28D8242E5D9E0858869DB
:1016400020282DD020680C3050E8001F21F4807134
:1016500040E80012002AF5D12068143050E8001F3D
:1016600021F0010140E80012002AF5D12068143071
:1016700050E8001F21F0400140E80012002AF5D197
:1016800084F84230256320680C3050E8001F21F0B8
:10169000100140E80012002AF5D1E06BFEF7A5FD2D
:1016A0006663A08DE18D401A81B22AE0A08DE18DA4
:1016B000401A81B2E08D0028A6D00029A4D022686B
:1016C0000C3252E8000F20F4907042E80007002F1F
:1016D000F5D12068143050E8002F22F0010240E8D4
:1016E0000027002FF5D184F84230256320680C30A4
:1016F00050E8002F22F0100240E80023002BF5D123
:1017000066632046FFF708FFF8BDFFE705062BD507
:10171000150629D594F841002128F5D1A068B0F527
:10172000805F01D12069B0B1206A411C216221682B
:1017300000784860E08C401E0004000CE084E3D197
:101740002068C16821F08001C1602068C16841F053
:101750004001C160D8E7206A0088C0F308004860F3
:10176000206A801C2062E5E74006CDD55006CBD527
:10177000CA68204622F04002CA6084F8413000F076
:10178000C3F8C1E72322000870B5040004D094F820
:101790004100002510B106E0012070BD84F84050E2
:1017A000204600F023F8242084F841002068C16816
:1017B00021F40051C160204600F0C4FD2068016999
:1017C00021F4904101612068416921F02A014161C1
:1017D0002068C16841F40051C1606564202084F82C
:1017E000410084F842006563002070BD30B585B0CB
:1017F00000240094019402940394006818498842DC
:101800002CD11848816941F480418161816901F4DA
:1018100080410491816941F0040181618069124D28
:1018200000F0040004904FF400700090022001903A
:101830000320039069462846FEF758FD2815CDE998
:101840000004694628460294FEF750FD0022114626
:101850002520FFF7DDF82520FFF7CCF805B030BDD7
:1018600000380140001002400008014070472DE997
:10187000F843044690F841001F4616460D462028BE
:1018800002D00220BDE8F8837DB176B1002060640B
:10189000212084F84100FEF72BFEA6848046E684D2
:1018A000A068B0F5805F02D003E00120EAE720697C
:1018B00010B12E4600250EE000260CE080212046C7
:1018C00000F09CFDA0B9AEB116F8010B216848608C
:1018D000E08C401EE084E08C43464FF0000200970D
:1018E0000028EBD14FF04001204600F087FD30B1D9
:1018F0000320C7E735F8020BC0F30800E6E7202015
:1019000084F841000020BDE77047FEE701684A699E
:10191000D24352050FD46FF480624A61002140F82F
:10192000301F202242738173026942F00402026177
:101930000173012070470020704700002DE9F84F27
:101940000446006889460B9D01689846174641F495
:10195000806101602068016841F480710160009538
:101960004FF0011B0022594620460A9B00F064F804
:101970004FF4007A40B120680068C00501D5C4F872
:1019800040A00320BDE8F88F216809F0FE0008613F
:101990002B46284920460A9A00F096F8F0BB2068AA
:1019A0004169806900902A4620460A9900F022F990
:1019B00040B1206C04283AD12068016841F40071DC
:1019C000016034E0FEB2B8F1010F09D02168380A95
:1019D00008612A4620460A9900F00CF90028E8D14F
:1019E000206806612A4620460A9900F003F900287B
:1019F000DFD12068016841F4807101600095002208
:101A0000594620460A9B00F017F80028B3D12168F8
:101A100009F0FF0040F00100086100E007E02B46FC
:101A2000044920460A9A00F04FF80028AAD0012065
:101A3000A8E70000020001002DE9F047984617468C
:101A40000D460446C1F30746DDF820902AE000BFAA
:101A5000B8F1FF3F26D0FEF74BFDA0EB0901414551
:101A600002D8B8F1000F1DD12068012E16D0806970
:101A700025EA00000004000C12D00020B84211D169
:101A8000002044F8300F20216173A073216941F0D8
:101A90002001216120730120BDE8F0874069E7E75C
:101AA0000120EBE72068012E0AD0806925EA0000BA
:101AB0000004000C06D00020B842C9D00020EBE79B
:101AC0004069F3E70120F7E72DE9F047984616460D
:101AD0000D4604464FF000094FF0200AC1F30747B6
:101AE00023E020684069C043400515D420680168A0
:101AF00041F40071016021686FF480604861C4F8AE
:101B0000309084F83DA084F83E90216C41F00401AF
:101B1000216484F83C9021E0701C06D0FEF7E8FCBC
:101B2000A0EB0800B04203D816B1012F1FD021E06E
:101B30002068012F15D0806925EA00000004000C00
:101B400018D000BF44F8309F84F80DA084F80E90A0
:101B5000216941F02001216184F80C900120BDE849
:101B6000F087406925EA00000004000CEAD12068F3
:101B7000406901E02068806925EA00000004000C4B
:101B8000AFD1ECE72DE9F041002590460E46044622
:101B9000202728E04069C043C0060CD454F8301B0D
:101BA0006FF01000486144F810596777A577206AF4
:101BB0002062257714E0FEF79BFCA0EB0800B04202
:101BC00000D886B920684069C04340060BD544F868
:101BD000305F6773A573206940F020002061257392
:101BE0000120BDE8F08120684169C9434906D1D48C
:101BF0000020F6E770B516460D4604461EE0204666
:101C0000FFF784FE08B1012070BD681C16D0FEF7F6
:101C10006FFC801BA84200D885B920684069C0438A
:101C200000060BD5002044F8300F20216173A0730B
:101C3000216941F0200121612073E4E720684069B7
:101C4000C0430006DBD4002070BD7CB514460D46B1
:101C500006466A4606213B2000F028F800280BD1F2
:101C6000BDF8001049BA3180BDF8021049BA298088
:101C7000BDF8041049BA21807CBD7CB514460D46E0
:101C800006466A460621432000F010F800280BD1D2
:101C9000BDF8001049BA3180BDF8021049BA298058
:101CA000BDF8041049BA21807CBD00000EB540F695
:101CB000FF730092CDE9011302460123D1210248AE
:101CC000FEF7E0FC00200EBD200000202DE9F043CF
:101CD00085B00024284800940194029403948169FB
:101CE00041F010018161816901F010010491816965
:101CF00041F020018161816901F020010491816935
:101D000041F004018161816901F00401049181695C
:101D100041F0080181618069DFF8609000F00800FF
:101D20000490002218214846FEF7DDFBDFF85080C2
:101D300041F20307002239464046FEF7D4FB182043
:101D400001250226CDE90005CDE90246694648464F
:101D5000FEF7CCFA00970396CDE901546946404658
:101D6000FEF7C4FA28028DE8310069464846FEF7BE
:101D7000BDFA05B0BDE8F083001002400008014044
:101D8000000C01400D4810B50B4901600C49416041
:101D900000214FF480428160C0E9031241618161FA
:101DA000C1610162FEF7AAFB002803D0BDE8104024
:101DB000FEF719BA10BD00000054004020000020BA
:101DC000A086010010B58CB024216846FEF7B3F957
:101DD0000024164809944FF080410A94C0E9001489
:101DE0004FF6FF71C0E90241046184610320CDE92F
:101DF00000040120CDE9020406210491CDE905404B
:101E0000CDE9074169460948FFF79EF908B1FEF799
:101E1000EAF9099409A905480A94FFF7B1F80028DE
:101E200001D0FEF7E0F90CB010BD000074000020F6
:101E300010B58EB000240794089409940A940B946A
:101E40001C2168460C94FEF776F92348214901606D
:101E50004721C0E9011440F2E731C0E9031484616D
:101E6000FFF7C2F808B1FEF7BEF94FF480500790B3
:101E700007A91948FFF7FAF808B1FEF7B4F91648B0
:101E8000FFF7CEFA08B1FEF7AEF90B940BA9124892
:101E90000C94FFF775F808B1FEF7A5F960200090E3
:101EA00040F2F310CDE90104002269460A48049487
:101EB000FFF750FA08B1FEF796F904226946064882
:101EC000FFF748FA08B1FEF78EF90348FFF71CFA4E
:101ED0000EB010BD00040040BC00002010B58CB056
:101EE00024216846FEF727F900241648099414496E
:101EF0000A94C0E900144FF6FF71C0E90241046181
:101F000084610320CDE900040120CDE9020406210B
:101F10000491CDE90540CDE9074169460948FFF73D
:101F200013F908B1FEF75FF9099409A905480A9465
:101F3000FFF726F8002801D0FEF755F90CB010BDC8
:101F400000080040040100200C4810B50A49016057
:101F50004FF4E1314160002181600C22C160C0E991
:101F600004128161C161FFF70FFC002803D0BDE8B6
:101F70001040FEF738B910BD003801404C01002078
:101F8000FEE7FEE77047704710B5FEF709F9FEF768
:101F9000D9FCBDE81040FEF7EEBF10B590B0282187
:101FA0006846FEF7C8F814210AA8FEF7C4F8022014
:101FB00000900120049010200024059007946846AA
:101FC000FEF734FE08B172B6FEE70F20CDE90A0431
:101FD0000C940D9400210AA80E94FEF74BFD0028E6
:101FE00001D072B6FEE710B010BD7047F0B50268C0
:101FF000164B174C174D4FF08047984205D0B8420A
:1020000003D0A04201D0A84203D122F070064A6852
:102010003243984205D0B84203D0A04201D0A84232
:1020200003D122F44074CA6822434C6922F0800232
:10203000224302608A68C2620A688262984201D1C1
:102040000969016301214161F0BD0000002C0140DC
:10205000000400400008004010B501F01F030121FA
:10206000046A99408C430462016A9A4011430162F8
:1020700010BD10B5846842EA032224F47F440A4369
:102080002243826010BD826822F070020A4342F04F
:10209000070181607047000030B5036A026A22F0D0
:1020A000010202624268846924F073050C682C43C3
:1020B00023F002058B682B430A4DA8420BD123F075
:1020C0000805CB6822F440722B434D6923F00403CA
:1020D00015438A692A434260846149684163036207
:1020E00030BD0000002C014030B5026A036A23F0C5
:1020F00010030362436884690D6824F4E64444EAEB
:1021000005248D6822F0200242EA05120B4DA842F8
:102110000ED1CD6822F0800242EA05124D6923F407
:10212000406343EA85038D6922F0400243EA850358
:102130004360846149688163026230BD002C0140C4
:1021400030B5036A026A22F4807202624268C4698E
:1021500023F4007324F073050C682C438D6843EA64
:1021600005230C4DA8420ED1CD6823F4006343EA49
:1021700005234D6922F4405242EA05128D6923F489
:10218000806342EA05124260C4614968C163036228
:1021900030BD0000002C014030B5046A026A22F410
:1021A000805202624268C3690D6823F4E64343EA41
:1021B00005238D6824F4005444EA0534064DA842F2
:1021C00004D14D6922F4804242EA85124260C36123
:1021D00049680164046230BD002C014010B5036AF7
:1021E000046A24F001040462846924F0F00444EADF
:1021F000021423F00A020A438461026210BD10B582
:10220000036A046A24F010040462846923F0A003C2
:1022100024F4704444EA023243EA0111826101620B
:1022200010BD10B5406A0021C185C184FFF775F962
:1022300010BD01680C3151E8002F22F4907241E882
:102240000023002BF5D10168143151E8002F22F052
:10225000010241E80023002BF5D1016B012909D1CE
:1022600001680C3151E8002F22F0100241E80023F0
:10227000002BF5D1202180F8421000210163704726
:1022800008B590F84210222901D0022008BD8268CA
:102290004FF480539A4201D1016921B1816A9A4277
:1022A0001BD04AB10AE00268816A5268C2F3080290
:1022B0000A80816A891C08E0026972B1026852686A
:1022C00002F07F020A70816A491C8162C18D491E39
:1022D0000904090CC18503D01BE002685268F1E7CC
:1022E0000168CA6822F02002CA600168CA6822F444
:1022F0008072CA6001684A6922F001024A612021A5
:1023000080F8421000214163026B012A03D0FFF7DD
:10231000ADFA002008BD016301680C3151E8002FBF
:1023200022F0100241E80023002BF5D101680A6871
:10233000D20602D50A6849680091818DFFF7ECF852
:10234000E7E7000070B5044600680169E26821F41F
:102350004051114301612169A06808436169084344
:102360002168CA6841F20C639A430243CA6020683C
:102370004169A26921F44071114341611E492068FD
:10238000884202D1FEF71CFC01E0FEF709FC00EBDD
:10239000C00101EB0012606864218000B2FBF0F321
:1023A000B3FBF1F36FF018067343B2FBF0F5B2FB29
:1023B000F0F605EB8305322303EB0515B5FBF1F5CC
:1023C000B6FBF1F605F0F00505EB0615B2FBF0F6ED
:1023D000B2FBF0F0B0FBF1F06FF01802504306EBE7
:1023E000800003EB0010B0FBF1F0216800F00F005B
:1023F0002844886070BD0000003801402DE9F0419C
:10240000984617460E460446069D27E0681C25D0D0
:102410002DB1FEF76DF8A0EB0800A8421ED9206888
:102420000C3050E8001F21F4D07140E80012002A5F
:10243000F5D12068143050E8001F21F0010140E878
:102440000012002AF5D1202084F8410084F84200CF
:10245000002084F840000320BDE8F0812068006877
:1024600036EA000004D00020B842CFD00020F3E7C5
:102470000120F9E70148FFF751B800004C010020A6
:10248000FEE700000FB4054B10B503A9044A0298FB
:1024900000F028F810BC5DF814FB00003926000895
:1024A0001C0000200907090E002804DB00F1E020D1
:1024B00080F80014704700F00F0000F1E02080F871
:1024C000141D704702E008C8121F08C1002AFAD183
:1024D00070477047002001E001C1121F002AFBD1A4
:1024E000704700002DE9FF4F89B09B460446002548
:1024F00006E025280BD05A460B999047641C6D1CAA
:1025000020780028F5D10DB02846BDE8F08F0027CF
:10251000B8460122474900E0074314F8013F203B39
:1025200002FA03F00842F7D120782E2819D114F8C6
:10253000010F47F004072A280ED06FF02F022078F1
:10254000A0F1300109290CD808EB880102EB410108
:1025500000EB0108641CF2E70A98641C50F8048B35
:102560000A9020780028CED0642808D0692806D0A8
:1025700075281ED05A460B9990476D1C58E00A9951
:102580004FF00A0901C90A91002802DA40422D21C0
:1025900002E0390504D52B218DF82010012103E03C
:1025A000F90704D02021F7E78A4608AE0DE00021A4
:1025B000FAE70A994FF00A0901C90A91F7E7494673
:1025C000FDF7C4FD303106F8011D0028F7D1ADEB51
:1025D000060000F12009780701D44FF00108C84532
:1025E00002DDA8EB090000E000208046002706E09D
:1025F00008A85A46C05D0B9990476D1C7F1C574533
:10260000F6DB04E030205A460B9990476D1CB8F178
:102610000001A8F10108F5DC05E016F8010B5A46A7
:102620000B9990476D1CB9F10001A9F10109F4DC87
:10263000641C65E70928010013B54FF6FF730122FA
:1026400069460248FFF713F900981CBD4C010020B1
:1026500086B0FEF77FF9FFF7A0FCFFF737FBFFF727
:1026600073FCFFF73BFCFFF7E3FBFFF78BFBFFF788
:10267000A9FB3C212A48FEF7FFFD3C212948FEF733
:10268000FBFD00212848FEF7F9FE04212648FEF74D
:10269000F5FE264E264C274D4FF47A774FF480589E
:1026A0003846FDF711FE494623A0FFF7EBFE4946E9
:1026B00028A0FFF7E7FE3068012813D141462046E5
:1026C000FDF709FF08212846FDF705FF10212846E0
:1026D000FDF701FF01212046FDF7FDFE0221204606
:1026E000FDF7F9FE05AA04A903A8FFF7C6FA02AA96
:1026F00001A96846FFF7A9FABDF91430BDF9102009
:10270000BDF90C101AA0FFF7BDFEBDF90830BDF9E8
:102710000420BDF900101EA0FFF7B4FEC0E70000C2
:102720000401002074000020BC00002008000020EC
:10273000000C01400008014074686520706C7573DE
:1027400065206F662074696D34206973203D2025F3
:10275000640D0A0074686520706C757365206F667F
:102760002074696D32206973203D2025640D0A00B4
:102770006779726F783D25642C206779726F793D97
:1027800025642C206779746F7A3D2564200A200027
:10279000616363783D25642C20616363793D256422
:1027A0002C206163637A3D2564200A20000000002C
:1027B000010202030405060708090A0B0C0D0E0F9F
:1027C00010100000000000000000010203040607D2
:1027D000080900000000010203040000FC270008B3
:1027E0000000002020000000C42400081C2800086D
:1027F0002000002078050000D4240008000000001C
:1028000000000000000000000100000010000000B7
:0C281000000000000024F40000000000A4
:04000005080000ED02
:00000001FF
