:020000040800F2
:10000000E805002005010008DF1A0008CF170008E6
:10001000DD1A00089D010008ED1F00080000000027
:10002000000000000000000000000000E31A0008CB
:10003000E501000800000000E11A0008E51A0008C8
:100040001F0100081F0100081F0100081F01000810
:100050001F0100081F0100081F0100081F01000800
:100060001F0100081F0100081F0100081F010008F0
:100070001F0100081F0100081F0100081F010008E0
:100080001F0100081F0100081F0100081F010008D0
:100090001F0100081F0100081F0100081F010008C0
:1000A0001F0100081F0100081F0100081F010008B0
:1000B0001F0100081F0100081F0100081F010008A0
:1000C0001F0100081F0100081F0100081F01000890
:1000D0001F010008E11F00081F0100081F010008A0
:1000E0001F0100081F0100081F010008DFF810D0E1
:1000F00000F042F800480047BD210008AFF300803F
:10010000E80500200648804706480047FEE7FEE76E
:10011000FEE7FEE7FEE7FEE7FEE7FEE7FEE7FEE7B7
:10012000551B0008ED000008D2B201E000F8012BD9
:10013000491EFBD270470022F6E710B513460A4667
:1001400004461946FFF7F0FF204610BD30B50B46B8
:10015000014600202022012409E021FA02F59D42F7
:1001600005D303FA02F5491B04FA02F52844151ECB
:10017000A2F10102F1DC30BD064C074D06E0E0685B
:1001800040F0010394E8070098471034AC42F6D3DE
:10019000FFF7B0FF2823000848230008FEE700000F
:1001A00010B54FF480710D4800F09CF90C49002205
:1001B00018B10A608A604A6010BD0868401C086077
:1001C0001E2808DB486808B10A6010BD012088605D
:1001D000C1E9002010BD8A6010BD00000008014088
:1001E00000000020704772B6FEE700000448016876
:1001F000486A044A00B2506000224A627047000018
:100200007C0000200C00002004480168486A044A71
:1002100000B2106000224A62704700000C0100200A
:100220000C00002010B590F821100022022905D002
:100230000421816380F82020012010BD01680B6833
:1002400023F00E030B6001680B6823F001030B60C1
:1002500090F84030C46B012101FA03F3636080F829
:10026000211080F82020104610BD000010B590F835
:1002700021100024022903D00421816301243DE0E0
:1002800001680A6822F00E020A6001680A6822F01A
:1002900001020A601A4A0168914201D1012121E05C
:1002A000174A1432914201D110211BE0144A28321E
:1002B000914201D1891515E0114A3C32914201D198
:1002C00089140FE00E4A5032914202D14FF480312E
:1002D00008E00B4A6432914202D14FF4801101E0F0
:1002E0004FF08071064A083A5160012180F82110D0
:1002F000002180F82010416B01B18847204610BDD5
:10030000080002402DE9F84FDFF8B8910024A9F168
:10031000040B23460F2709F1040AABF1040EC9E0D0
:100320000125A5402A40AA427DD1674ED1F804C0DC
:10033000ACEB0608B44532D014DCBCF1030F3AD064
:1003400009DCBCF1000F2AD0BCF1010F1CD0BCF1BC
:10035000020F31D11DE0BCF1110F17D0BCF1120F0B
:100360002AD119E0B8F5881F19D006DCB8F5803F0E
:1003700015D0B8F5801F1FD111E0B8F5001F0ED0C1
:10038000B8F5041F18D10AE0CB6815E0CB681B1D37
:1003900012E0CB6808330FE0CB680C330CE08B68BD
:1003A0002BB1012B4FF0080303D0456104E0042377
:1003B00002E0056100E00023FF2A01D8064601E0C3
:1003C00000F104064FEA840501D9A5F12005D6F80D
:1003D000008007FA05FC28EA0C0803FA05F548EA4C
:1003E0000508C6F800804D68ED0062D5374DAE694E
:1003F00046F00106AE61AD6924F0030605F0010583
:100400000095334D06EB050CDCF80850A607360FB7
:1004100007FA06F825EA0805DFF8B880404503D159
:100420004FF0000817E044E0DFF8AC80404502D10F
:100430004FF001080FE0DFF8A480404502D14FF0F3
:10044000020808E0DFF89880404502D14FF0030829
:1004500001E04FF0040808FA06F848EA0508CCF86D
:1004600008804D68D9F80060ED024D4601D516436D
:1004700000E096432E604D68DAF80060AD02554604
:1004800001D5164300E096432E604D68DBF800600E
:10049000AD035D4601D5164300E096432E604D68DE
:1004A000DEF80060ED03754601D5164300E0964383
:1004B0002E60641C0D682A46E5407FF431AFBDE82C
:1004C000F88F0000080401400000111000100240E5
:1004D0000000014000080140000C014000100140F4
:1004E000001401408068084000D001207047C268B5
:1004F00021EA02030A4043EA0241016170470AB15E
:10050000016170470904FBE70148806870470000FB
:100510001400002070B5040025D094F83D0000259B
:1005200020B984F83C50204600F0B8F8242084F824
:100530003D002068016821F0010101602068016828
:1005400041F4004101602068016821F4004101602C
:1005500000F00AFA4D4A6168914201D84C4900E026
:100560004C49884201D2012070BD4B492368B0FB41
:10057000F1F15E6826F03F060E435E6063689342C9
:1005800006D94FF4967359434FF47A73B1FBF3F1E4
:100590002368491C1E6A26F03F06314319626168D0
:1005A000914210D84900401EB0FBF1F2521CC2F338
:1005B0000B02042A01D2042022E0B0FBF1F0401C1F
:1005C000C0F30B001CE0A268F2B301EBC10303EB24
:1005D0000116431EB3FBF6F35B1C43F480431B057B
:1005E00049D092B301EBC10202EB0111401EB0FBF6
:1005F000F1F0401CC0F30B0040F4804040F4004098
:100600002168CA694CF6FF739A431043C861D4E964
:10061000071001432068026822F0C0021143016004
:10062000D4E9030101432068826848F2FF339A430A
:1006300011438160D4E9050108432168CA6822F0AA
:10064000FF021043C86001E00EE016E02068016878
:1006500041F0010101602564202084F83D002563FC
:1006600084F83E50002070BD01EB4106431EB3FBF1
:10067000F6F35B1CB3E70120C2E701EB4101401E2A
:10068000B0FBF1F0401CC0F30B00B7E7A0860100FF
:1006900080841E0000093D0040420F0010B586B066
:1006A0000021009101910291039100681349884251
:1006B00022D1134CA06940F00800A061A0696946EE
:1006C00000F0080004904FF4407000901220019058
:1006D000032003900B48FFF715FE0B48416841F0DB
:1006E000E06141F002014160E06940F40010E06126
:1006F000E06900F40010049006B010BD0054004002
:1007000000100240000C01400000014002488168D6
:10071000027811448160704714000020074810B52A
:10072000016841F010010160032000F075F80F200E
:1007300000F006F800F024F8002010BD0020024070
:1007400070B50D4D04464FF47A712878B1FBF0F086
:100750000A490968B1FBF0F000F0DDFA48B9102C45
:1007600007D200222146501E00F036F800206C60AF
:1007700070BD012070BD000014000020200000208A
:100780000C4808B5816941F001018161816901F07E
:1007900001010091C16941F08051C161C06900F05F
:1007A000805000900448416821F0E06141F0007100
:1007B000416008BD0010024000000140002809DB34
:1007C00000F01F02012191404009800000F1E0206B
:1007D000C0F8001170470000F0B40E4B1B680C46C7
:1007E000C3F30223C3F10705042D00D90425191D05
:1007F000072901D2002300E0DB1E012606FA05F1DD
:10080000491E214099409E40761E16403143F0BC5F
:1008100001F0FEBB0CED00E0064900F0070208689D
:100820004FF6FF03184040EA0220034A10430860D5
:10083000704700000CED00E00000FA052DE9F047DC
:100840000F46050061D0434E306800F00700B84203
:1008500009D2306820F0070038433060306800F07B
:100860000700B84251D128683B4C810712D5400798
:1008700003D5606840F4E06060602878000703D525
:10088000606840F4605060606068A96820F0F00023
:10089000084360602878C00728D06868012810D015
:1008A0002168022810D0890700292EDA616821F01A
:1008B000030101436160FFF727FE804641F288395A
:1008C0000DE021688903EFE78901EDE7FFF71CFEE2
:1008D000A0EB0801494502D90320BDE8F087606814
:1008E000696800F00C00B0EB810FEFD1306800F0C8
:1008F0000700B8420BD9306820F007003843306059
:10090000306800F00700B84201D00120E5E7287800
:10091000400705D56068E96820F4E060084360603E
:100920002878000706D56068296920F4605040EAFD
:10093000C100606000F038F86168084AC1F3031133
:10094000515CC8400649086006480068FFF7F8FE99
:100950000020C2E700200240001002400E230008E1
:10096000200000201800002004480549006849685C
:10097000044AC1F30221515CC840704720000020A6
:10098000001002401E230008044805490068496819
:10099000044AC1F3C221515CC840704720000020C6
:1009A000001002401E2300080E4A51680E4801F054
:1009B0000C03042B11D0082B0FD10C48C1F3834337
:1009C000C903C05C0AD55168084AC1F34041921E70
:1009D000515C054A5043B0FBF1F07047044948436D
:1009E000704700000010024000127A00FE2200084A
:1009F00000093D002DE9F84F040070D02078C04D6B
:100A0000C00749D06868C0F38100012807D0686832
:100A1000C0F38100022809D16868C00306D52868A0
:100A2000800339D560680028E7D035E06068B0F50C
:100A3000803F0BD010B1B0F5A02F11D0286820F462
:100A400080302860286820F4802002E0286840F484
:100A500080302860606890B1FFF756FD06460AE0D6
:100A6000286840F480202860F0E700BFFFF74CFDC5
:100A7000801B642873D828688003F7D50CE0FFF743
:100A800043FD064605E000BFFFF73EFD801B6428DE
:100A9000F0D828688003F7D420789A4E80074FF06A
:100AA00001094FF0000839D5686810F00C0F07D025
:100AB0006868C0F38100022809D16868C00306D4C1
:100AC0002868800714D52069012808D110E0206922
:100AD000B0B1C6F80090FFF717FD074605E00AE140
:100AE000FFF712FDC01B0228C4D828688007F7D57D
:100AF0002868616920F0F80040EAC10028600DE034
:100B0000C6F80080FFF700FD074604E0FFF7FCFC95
:100B1000C01B022823D828688007F7D42078000754
:100B20002CD57948A169D9B1C0F80090FFF7ECFC49
:100B3000074604E0FFF7E8FCC01B02280FD8686AEC
:100B40008007F7D571484FF4FA510068B0FBF1F017
:100B5000009000BF0098411E0091FAD20EE080E0A4
:100B6000C0F80080FFF7D0FC074604E0FFF7CCFC9C
:100B7000C01B022875D8686A8007F7D42078400720
:100B800060D5E8690027C00008D4E86940F08050CB
:100B9000E861E869012700F0805000905C48016836
:100BA000C90513D40168834641F480710160FFF7E1
:100BB000ABFC824606E000BFFFF7A6FCA0EB0A00F4
:100BC00064284ED8DBF80000C005F5D5E0680128A0
:100BD0000AD008B1052813D0286A20F00100286245
:100BE000286A20F0040002E0286A40F00100286230
:100BF000E06841F2883B98B1FFF786FC82460BE043
:100C0000286A40F004002862EEE700BFFFF77CFC92
:100C1000A0EB0A0159455AD8286A8007F6D50CE09E
:100C2000FFF772FC824605E0FFF76EFCA0EB0A01BD
:100C300059454CD8286A8007F6D41FB1E86920F0DE
:100C40008050E861E06988B36968C1F381010229D5
:100C500044D00228C6F8608004D0FFF755FC044653
:100C600038E034E0FFF750FC074604E0FFF74CFCA7
:100C7000C01B02282BD828688001F7D4206AB0F561
:100C8000803F05D16868A16820F40030084368609F
:100C9000D4E908010843696821F4741108436860C5
:100CA000C6F86090FFF730FC044606E025E000BF80
:100CB000FFF72AFC001B022809D828688001F7D515
:100CC0001BE000BFFFF720FC001B022802D9032015
:100CD000BDE8F88F28688001F4D40EE00128F7D031
:100CE0006868226A00F48031914204D1616A00F49C
:100CF0007010884201D00120EAE70020E8E70000F8
:100D000000100240000042428004424220000020C5
:100D100000700040704710B5401EB0F1807F01D3D5
:100D2000012010BD4FF0E02460610F21601701F039
:100D30006FF90020A06107202061002010BD10B5D0
:100D4000FFF7E8FF10BD000070B590F83C20012AC5
:100D500026D0012480F83C40022280F83D20036820
:100D60005A689D6822F070060A6832435A600D4B3B
:100D700002689A4208D0B2F1804F05D00A4B9A42DD
:100D800002D00A4B9A4204D1496825F080031943E6
:100D9000916080F83D40002180F83C10084670BD0D
:100DA000022070BD002C01400004004000080040FB
:100DB00010B5040003D094F83D0010B107E0012005
:100DC00010BD002084F83C00204600F01FF80220EF
:100DD00084F83D00211D206800F0BEFE012084F84B
:100DE000460084F83E0084F83F0084F8400084F810
:100DF000410084F8420084F8430084F8440084F8F9
:100E0000450084F83D00002010BD000008B50068D2
:100E10000649884208D10648C16941F00201C16112
:100E2000C06900F00200009008BD0000000400400E
:100E30000010024070B5044690F83C0000250128DF
:100E400017D0012684F83C60022084F83D00206819
:100E5000826822F0770222F47F428260086850287C
:100E600038D00DDC20284FD005DC90B3102811D1EC
:100E70004AE0022070BD302846D040280AD13BE02D
:100E800060282FD070280DD0B0F5805F03D0B0F56A
:100E9000005F12D0012584F83D60002084F83C00FA
:100EA000284670BDCB68D1E90121206800F097FE8B
:100EB0002068816841F0770109E0CB68D1E9012120
:100EC000206800F08CFE2068816841F480418160D8
:100ED000E1E719E0CA684968206800F035FF502151
:100EE000206806E0CA684968206800F03EFF60217B
:100EF000206800F07EFECEE7CA684968206800F0EE
:100F000023FF40212068F4E7226801461046F0E7FD
:100F10002DE9F0410D46040003D094F83D0018B1CE
:100F200008E00120BDE8F081002084F83C00204664
:100F300000F040F8022084F83D002068816844F207
:100F4000070291438160211D206800F005FE2268A0
:100F500090689169166A2B68AF69034340F20330C9
:100F6000814341EA0721A868EF6908434FF6FC4135
:100F70008843E96840EA0720014328692F6A000195
:100F800040EA0730084369686D6926F0220646EAA0
:100F90000515294393602268906154F8460B01625D
:100FA000012004F81F09E0752076E0762077A0750F
:100FB0000020B7E700B585B00021009101910291B2
:100FC000039101681A48B1F1804F1BD0194A914230
:100FD00016D1C16941F00401C161C16901F0040188
:100FE0000491816941F0080181618069694600F0DE
:100FF00008000490C02000900F4800BFFFF782F95E
:1010000005B000BDC16941F00101C161C16901F0D4
:1010100001010491816941F004018161806969469F
:1010200000F004000490032000900448E6E700006C
:101030000010024000080040000C01400008014080
:1010400070B590F83E60044690F83F5090F84230FA
:1010500090F84320022021B104290ED0012E1BD18B
:1010600014E0012E18D1012B16D184F83E0084F82B
:10107000420001220021206820E0012D0CD1012A2C
:101080000AD184F83F0084F8430014E0012D03D115
:10109000012B01D1012A01D0012070BD84F83E004E
:1010A00084F83F0084F8420084F8430001220021C4
:1010B000206800F087FD01220421206800F082FDF5
:1010C0002068016841F001010160002070BD00004E
:1010D00000B585B000210091019102910391006853
:1010E0000B49884211D10B48816941F004018161AB
:1010F0008069694600F004000490C020009002203E
:10110000019003900448FFF7FDF805B000BD000012
:1011100000040040001002400008014070B5044681
:1011200090F83C0000260D4601280FD0012084F8DD
:101130003C006AB1042A1DD0082A2FD00C2A3FD0C7
:101140000126002084F83C00304670BD022070BDAE
:10115000206800F057FD2068816941F00801816135
:101160002068816921F004018161206881692A6910
:10117000114311E0206800F06DFD2068816941F4A1
:10118000006181612068816921F48061816120684A
:1011900081692A6941EA02218161D2E7206800F071
:1011A00085FD2068C16941F00801C1612068C169FD
:1011B00021F00401C1612068C1692A69114311E06D
:1011C000206800F09FFD2068C16941F40061C161A1
:1011D0002068C16921F48061C1612068C1692A6900
:1011E00041EA0221C161ACE710B5040003D094F8D4
:1011F0003D0010B107E0012010BD002084F83C0044
:10120000204600F01EF8022084F83D00211D2068D1
:1012100000F0A2FC012084F8460084F83E0084F827
:101220003F0084F8400084F8410084F8420084F8CC
:10123000430084F8440084F8450084F83D00002011
:1012400010BD704710B50446022249B104290ED0E2
:10125000082913D094F84100012816D0012010BDB0
:1012600094F83E000128F9D184F83E200FE094F86C
:101270003F000128F2D184F83F2008E094F84000B4
:101280000128EBD184F8402001E084F841200122BC
:10129000206800F097FC0F492068884203D1426C17
:1012A00042F4004242642068884208D0B0F1804F86
:1012B00005D00949884202D00849884204D1816892
:1012C00001F00701062903D0016841F00101016026
:1012D000002010BD002C0140000400400008004028
:1012E00070477047F8B5016804460868CA684B69DA
:1012F00010F00F0F4FF0000559D003F0010602F473
:101300009077374365D0C10705D0D10503D5616C0F
:1013100041F001016164410705D5D90703D0616C33
:1013200041F002016164810705D5D90703D0616CE2
:1013300041F004016164010707D502F02001314347
:1013400003D0616C41F008016164616C00293AD0FE
:10135000800604D5900602D5204600F047FD20689F
:101360004069616CC0F38010090700D460B3204667
:1013700000F015FD20684069400621D52068143032
:1013800050E8001F21F0400140E80012002AF5D18A
:10139000E06BA8B16D494163E06BFEF767FF002881
:1013A00011D0E06B416B01B0BDE8F0400847830607
:1013B0000FD593060DD52046BDE8F84000F016BDC8
:1013C0002046FFF78EFFF8BD2046FFF78AFF6564D1
:1013D000F8BD266B2023012E7CD1C6067AD5D60611
:1013E00078D508684868009048694FF002064006C2
:1013F00040D5E16B086840680004000CE8D0A28D7D
:101400008242E5D9E085886920282DD020680C30FB
:1014100050E8001F21F4807140E80012002AF5D145
:101420002068143050E8001F21F0010140E800124C
:10143000002AF5D12068143050E8001F21F0400147
:1014400040E80012002AF5D184F842302563206874
:101450000C3050E8001F21F0100140E80012002A73
:10146000F5D1E06BFEF7DEFE6663A08DE18D401ADC
:1014700081B22AE0A08DE18D401A81B2E08D002872
:10148000A6D00029A4D022680C3252E8000F20F424
:10149000907042E80007002FF5D12068143050E822
:1014A000002F22F0010240E80027002FF5D184F838
:1014B0004230256320680C3050E8002F22F01002E3
:1014C00040E80023002BF5D166632046FFF708FFB4
:1014D000F8BDFFE705062BD5150629D594F8410080
:1014E0002128F5D1A068B0F5805F01D12069B0B1A5
:1014F000206A411C2162216800784860E08C401E0F
:101500000004000CE084E3D12068C16821F0800170
:10151000C1602068C16841F04001C160D8E7206A1D
:101520000088C0F308004860206A801C2062E5E75C
:101530004006CDD55006CBD5CA68204622F04002E1
:10154000CA6084F8413000F041F9C1E78F1D0008FE
:1015500070B5040004D094F84100002510B106E0F5
:10156000012070BD84F84050204600F023F824206C
:1015700084F841002068C16821F40051C160204610
:1015800000F096FC2068016921F490410161206817
:10159000416921F02A0141612068C16841F400518C
:1015A000C1606564202084F8410084F842006563CE
:1015B000002070BD70B586B00024009401940294A0
:1015C000039403682B482A4E022103220515B342D7
:1015D00029D1836943F480438361836903F48043A1
:1015E0000493836943F0040383618069224E00F011
:1015F000040004900802CDE90001039269463046D8
:10160000FEF780FECDE90054694630460294FEF7AD
:1016100079FE002211462520FFF7DEF82520FFF78E
:10162000CDF806B070BD154EB342FAD1C36943F48C
:101630008023C361C36903F480230493836943F067
:10164000080383618069CDE9005100F00800CDE90D
:1016500003200B4D69462846FEF754FEE814CDE9F9
:101660000004694628460294FEF74CFED9E70000C4
:1016700000380140001002400008014000480040CE
:10168000000C01402DE9F843044690F842009946C9
:1016900016460D46202802D00220BDE8F883ADB1E1
:1016A000A6B100206064222184F842102063FEF776
:1016B0002BFFA6858046E685A0684FF48057B84288
:1016C00001D1206920B12E46002526E00120E4E763
:1016D000002622E04346002220212046CDF800903B
:1016E00000F042FC08B10320D7E726B1A068B84259
:1016F0001BD038B108E020684068C0F3080025F826
:10170000020B07E0206980B12068406800F07F008C
:1017100006F8010BE08D401EE085E08D0028D9D150
:10172000202084F842000020B7E720684068EFE7F7
:1017300070472DE9F843044690F841001F461646CD
:101740000D46202802D00220BDE8F8837DB176B195
:1017500000206064212084F84100FEF7D5FEA684B5
:101760008046E684A068B0F5805F02D003E00120E7
:10177000EAE7206910B12E4600250EE000260CE0B5
:101780008021204600F0F0FBA0B9AEB116F8010BA5
:1017900021684860E08C401EE084E08C43464FF0B6
:1017A000000200970028EBD14FF04001204600F0E6
:1017B000DBFB30B10320C7E735F8020BC0F30800AC
:1017C000E6E7202084F841000020BDE77047FEE7EF
:1017D0002DE9F04786B0002430480094019402942B
:1017E0000394816941F010018161816901F0100168
:1017F0000491816941F020018161816901F020013A
:101800000491816941F004018161816901F0040161
:101810000491816941F0080181618069DFF880A04D
:1018200000F008000490002218215046FEF767FEE1
:10183000DFF87090002203214846FEF760FE4FF467
:101840008058012241464846FEF759FE18200125DE
:101850000226CDE90005CDE9024669465046FEF76D
:1018600051FD032700970396CDE901546946484688
:10187000FEF748FDCDF800800397CDE90154694695
:101880004846FEF73FFD28028DE831006946504684
:10189000FEF738FD06B0BDE8F087000000100240FA
:1018A00000080140000C01400D4810B50B490160D3
:1018B0000C49416000214FF480428160C0E903126D
:1018C00041618161C1610162FEF724FE002803D0FD
:1018D000BDE81040FEF787BC10BD0000005400407A
:1018E00028000020A086010010B58CB02421684695
:1018F000FEF721FC0024164809944FF080410A9419
:10190000C0E900144FF6FF71C0E90241046184612F
:101910000320CDE900040120CDE902040621049151
:10192000CDE90540CDE9074169460948FFF7F0FADE
:1019300008B1FEF758FC099409A905480A94FFF775
:1019400003FA002801D0FEF74EFC0CB010BD0000D9
:101950007C00002010B58EB00024079408940994F0
:101960000A940B941C2168460C94FEF7E4FB234870
:10197000214901604721C0E9011440F2E731C0E983
:1019800003148461FFF714FA08B1FEF72CFC4FF43E
:101990008050079007A91948FFF74CFA08B1FEF7E5
:1019A00022FC1648FFF720FC08B1FEF71CFC0B9444
:1019B0000BA912480C94FFF7C7F908B1FEF713FC06
:1019C0006020009040F2F310CDE901040022694646
:1019D0000A480494FFF7A2FB08B1FEF704FC0422B6
:1019E00069460648FFF79AFB08B1FEF7FCFB03487F
:1019F000FFF76EFB0EB010BD00040040C4000020D5
:101A000010B58CB024216846FEF795FB00241648DB
:101A1000099414490A94C0E900144FF6FF71C0E913
:101A20000241046184610320CDE900040120CDE975
:101A3000020406210491CDE90540CDE9074169463C
:101A40000948FFF765FA08B1FEF7CDFB099409A92B
:101A500005480A94FFF778F9002801D0FEF7C3FB88
:101A60000CB010BD000800400C0100200C4810B55F
:101A70000A4901604FF4E1314160002181600C228C
:101A8000C160C0E904128161C161FFF761FD0028F6
:101A900003D0BDE81040FEF7A6BB10BD00380140E2
:101AA000540100200C4810B50A4901604FF4E1319F
:101AB0004160002181600C22C160C0E90412816193
:101AC000C161FFF745FD002803D0BDE81040FEF7D7
:101AD0008ABB10BD004800409C010020FEE7FEE7E5
:101AE0007047704710B5FEF75BFBFEF70FFEBDE8D1
:101AF0001040FFF724B930B58FB028216846FEF7B3
:101B00001AFB14210AA8FEF716FB01210804CDE9EF
:101B100000100024029402250491CDE907504FF4EF
:101B2000E01009906846FEF765FF08B172B6FEE75F
:101B30000F20CDE90A054FF48060CDE90C40022169
:101B40000AA80E94FEF77AFE002801D072B6FEE7CE
:101B50000FB030BD70470000F0B50268164B174C4F
:101B6000174D4FF08047984205D0B84203D0A042AD
:101B700001D0A84203D122F070064A68324398424D
:101B800005D0B84203D0A04201D0A84203D122F42C
:101B90004074CA6822434C6922F0800222430260EA
:101BA0008A68C2620A688262984201D10969016347
:101BB00001214161F0BD0000002C01400004004003
:101BC0000008004010B501F01F030121046A99408C
:101BD0008C430462016A9A401143016210BD10B542
:101BE000846842EA032224F47F440A432243826049
:101BF00010BD826822F070020A4342F00701816042
:101C00007047000030B5036A026A22F001020262E6
:101C10004268846924F073050C682C4323F00205A4
:101C20008B682B430A4DA8420BD123F00805CB68E3
:101C300022F440722B434D6923F0040315438A6953
:101C40002A434260846149684163036230BD0000F9
:101C5000002C014030B5026A036A23F010030362CE
:101C6000436884690D6824F4E64444EA05248D68D9
:101C700022F0200242EA05120B4DA8420ED1CD6897
:101C800022F0800242EA05124D6923F4406343EAE0
:101C900085038D6922F0400243EA85034360846135
:101CA00049688163026230BD002C014030B5036A8F
:101CB000026A22F4807202624268C46923F40073EB
:101CC00024F073050C682C438D6843EA05230C4D02
:101CD000A8420ED1CD6823F4006343EA05234D6981
:101CE00022F4405242EA05128D6923F4806342EAED
:101CF00005124260C4614968C163036230BD0000DF
:101D0000002C014030B5046A026A22F4805202625B
:101D10004268C3690D6823F4E64343EA05238D68EE
:101D200024F4005444EA0534064DA84204D14D6918
:101D300022F4804242EA85124260C361496801642C
:101D4000046230BD002C014010B5036A046A24F01F
:101D500001040462846924F0F00444EA021423F0CC
:101D60000A020A438461026210BD10B5036A046A64
:101D700024F010040462846923F0A00324F4704466
:101D800044EA023243EA01118261016210BD10B5DA
:101D9000406A0021C185C184FFF7A3FA10BD016824
:101DA0000C3151E8002F22F4907241E80023002BFF
:101DB000F5D10168143151E8002F22F0010241E809
:101DC0000023002BF5D1016B012909D101680C31E9
:101DD00051E8002F22F0100241E80023002BF5D13A
:101DE000202180F8421000210163704708B590F867
:101DF0004210222901D0022008BD82684FF480538E
:101E00009A4201D1016921B1816A9A421BD04AB13B
:101E10000AE00268816A5268C2F308020A80816A95
:101E2000891C08E0026972B10268526802F07F0200
:101E30000A70816A491C8162C18D491E0904090C1E
:101E4000C18503D01BE002685268F1E70168CA68E7
:101E500022F02002CA600168CA6822F48072CA6057
:101E600001684A6922F001024A61202180F842108B
:101E700000214163026B012A03D0FFF759FC0020C7
:101E800008BD016301680C3151E8002F22F01002F7
:101E900041E80023002BF5D101680A68D20602D57B
:101EA0000A6849680091818DFFF71AFAE7E7000098
:101EB00070B5044600680169E26821F4405111439D
:101EC00001612169A0680843616908432168CA6803
:101ED00041F20C639A430243CA6020684169A269D7
:101EE00021F44071114341611E492068884202D1AA
:101EF000FEF74AFD01E0FEF737FD00EBC00101EB04
:101F00000012606864218000B2FBF0F3B3FBF1F3D0
:101F10006FF018067343B2FBF0F5B2FBF0F605EB79
:101F20008305322303EB0515B5FBF1F5B6FBF1F69E
:101F300005F0F00505EB0615B2FBF0F6B2FBF0F08C
:101F4000B0FBF1F06FF01802504306EB800003EB9A
:101F50000010B0FBF1F0216800F00F002844886009
:101F600070BD0000003801402DE9F0419846174649
:101F70000E460446069D27E0681C25D02DB1FEF7CD
:101F8000C3FAA0EB0800A8421ED920680C3050E824
:101F9000001F21F4D07140E80012002AF5D120681A
:101FA000143050E8001F21F0010140E80012002A1F
:101FB000F5D1202084F8410084F84200002084F804
:101FC00040000320BDE8F0812068006836EA000088
:101FD00004D00020B842CFD00020F3E70120F9E779
:101FE0000148FFF77FB9000054010020FEE7000020
:101FF0000FB4054B10B503A9044A029800F028F865
:1020000010BC5DF814FB0000A5210008240000208E
:102010000907090E002804DB00F1E02080F8001415
:10202000704700F00F0000F1E02080F8141D7047A9
:1020300002E008C8121F08C1002AFAD17047704791
:10204000002001E001C1121F002AFBD170470000EF
:102050002DE9FF4F89B09B460446002506E0252860
:102060000BD05A460B999047641C6D1C20780028B1
:10207000F5D10DB02846BDE8F08F0027B846012203
:10208000474900E0074314F8013F203B02FA03F000
:102090000842F7D120782E2819D114F8010F47F003
:1020A00004072A280ED06FF02F022078A0F130010B
:1020B00009290CD808EB880102EB410100EB01086B
:1020C000641CF2E70A98641C50F8048B0A9020788C
:1020D0000028CED0642808D0692806D075281ED0E4
:1020E0005A460B9990476D1C58E00A994FF00A091F
:1020F00001C90A91002802DA40422D2102E0390587
:1021000004D52B218DF82010012103E0F90704D01C
:102110002021F7E78A4608AE0DE00021FAE70A9988
:102120004FF00A0901C90A91F7E74946FEF70EF890
:10213000303106F8011D0028F7D1ADEB060000F1A3
:102140002009780701D44FF00108C84502DDA8EB4B
:10215000090000E000208046002706E008A85A4653
:10216000C05D0B9990476D1C7F1C5745F6DB04E062
:1021700030205A460B9990476D1CB8F10001A8F128
:102180000108F5DC05E016F8010B5A460B9990475B
:102190006D1CB9F10001A9F10109F4DC641C65E7CB
:1021A0000928010013B54FF6FF7301226946024862
:1021B000FFF7BFFA00981CBD5401002008B5FEF7D8
:1021C000ADFAFFF798FCFFF703FBFFF74FFCFFF7B3
:1021D00017FCFFF7BFFBFFF767FBFFF785FBFFF778
:1021E00061FC3C213048FEF72BFF3C212F48FEF7D5
:1021F00027FF00212E48FFF725F804212C48FFF780
:1022000021F82C4C012208212046FEF778F9DFF84E
:10221000A8800122114645464046FEF770F900228B
:1022200010212046FEF76BF9002202212846FEF716
:1022300066F91F4C214E4FF6FF794B460122694645
:102240001F48FFF71FFA6423012269461C48FFF765
:1022500070FA9DF80000312804D0332804D03828C3
:1022600005D00AE0642004E04FF4967001E04FF4DA
:1022700048702168486321688863FDF7C5FF0546FB
:10228000FDF7B4FF074629460EA0FFF7B1FE394619
:1022900013A0FFF7ADFE30680128CED10103404600
:1022A000FEF725F9C9E700000C0100207C000020A2
:1022B000C400002000080140000C0140080000207C
:1022C0009C01002074686520706C757365206F66D2
:1022D0002074696D34206973203D2025640D0A0047
:1022E00074686520706C757365206F662074696D05
:1022F00032206973203D2025640D0A00010202038B
:102300000405060708090A0B0C0D0E0F101000003B
:102310000000000000000102030406070809000095
:102320000000010203040000482300080000002010
:10233000280000003020000870230008280000203A
:10234000C005000040200008000000000000000060
:10235000000000000000000000000000010000007C
:1023600010000000000000000024F4000000000045
:04000005080000ED02
:00000001FF
