:020000040800F2
:100000003006002005010008572D0008372400089D
:10001000552D0008ED090008B93300080000000064
:100020000000000000000000000000005B2D000840
:100030007D0A000800000000592D00080D2E000860
:100040001F0100081F0100081F0100081F01000810
:100050001F0100081F0100081F0100081F01000800
:100060001F0100081F0100081F0100081F010008F0
:100070001F0100081F0100081F0100081F010008E0
:100080001F0100081F0100081F0100081F010008D0
:100090001F0100081F0100081F0100081F010008C0
:1000A0001F0100081F0100081F0100081F010008B0
:1000B0001F0100081F0100081F0100081F010008A0
:1000C0001F0100081F0100081F0100081F01000890
:1000D0001F010008A13300081F010008AD3300080C
:1000E0001F0100081F0100081F010008DFF810D0E1
:1000F00000F010FC0048004775410008AFF3008095
:10010000300600200648804706480047FEE7FEE725
:10011000FEE7FEE7FEE7FEE7FEE7FEE7FEE7FEE7B7
:10012000DF2E0008ED000008202A04DB203A21FA27
:1001300002F00021704721FA02F3D040C2F1200200
:100140009140084319467047D2B201E000F8012BF4
:10015000491EFBD270470022F6E710B513460A4647
:1001600004461946FFF7F0FF204610BDF0B480EAC0
:100170000102D40F4200B2EB410F02D20246084600
:1001800011464A0042D0C30DDDB2C1F3C752AD1AC9
:10019000202D35DAC1F3160141F4000204B15242B8
:1001A000C5F1200602FA06F12A411044B3EBD05FF4
:1001B00023D0C4B1012DA0EBC35009DCF0BC4FF03B
:1001C000004202EAC352DBB200F5000000F0CFBAF1
:1001D000400000F1807000EBC350A0F1807040EA55
:1001E000D170490009E0490841EAC071A0EBC35051
:1001F00000F50000400800EBC350F0BC00F0AEBAC0
:100200006142012202EB4101001BF6E7F0BC70479E
:1002100081F00041AAE780F00040A7E780EA0102F0
:1002200010B502F00043400022D04A001FD0010E5A
:1002300001EB1261C0F35600C2F3560240F4000015
:1002400042F40002A0FB022000047F39140400D015
:10025000401C50EA124001D44000491EC2B20C06B4
:1002600004EBD010401C4008802A02D003E000209C
:1002700010BD20F00100002900DA0020184310BD55
:100280002DE9FE4F804681EA0300C00F0C46009026
:1002900021F0004123F00045B8EB0200A94105D24E
:1002A0004046214690461C460B46024623F000403D
:1002B000104347D0270DC7F30A00C3F30A51029039
:1002C000401A019040286BDAC3F3130040F4801BFE
:1002D0000098924620B10023D2EB030A63EB0B0B8C
:1002E00001985946C0F14002504600F016FA064601
:1002F0000D4650465946019A00F01EFA10EB0800D0
:100300006141002487EA115284EAE7731A4340D01E
:10031000009A62B3019A012A4FEA075215DC001BCA
:1003200061EB02014FF0004202EA0752CDE90042C0
:10033000001C41F5801132462B4600F055FA03B0FF
:10034000BDE8F08F40462146F9E7001B61EB020152
:10035000001C41F5801300185B412018A2F500171E
:1003600047EB030140EAD570B6196D4111E06D0805
:100370004FEA360645EAC0754FEA0752001B61EBAB
:100380000201001C41F5801149084FEA30000019B4
:10039000514132462B4603B0BDE8F04F00F015BA8C
:1003A0000098012240000023D0EB020263EBE073CF
:1003B000009821464FEAE074B8EB000061EB0401BD
:1003C000E9E783F000435BE781F0004158E72DE95E
:1003D000FE4F81EA030404F0004421F00041009440
:1003E0004FF0000B23F0004350EA01045ED052EAC4
:1003F00003045BD0C3F30A54C1F30A552C44A4F29E
:10040000F3340194A0FB0254C1F3130141F48011B1
:10041000C3F3130343F4801301FB024400FB034EB8
:10042000840A970A44EA815447EA8357A4FB076881
:1004300002958D0A05FB07854FEA932C04FB0C54AB
:100440002705029D4FEA065847EA1637B5EB08051F
:100450006EEB070C870E920E47EA811742EA831271
:10046000A7FB0201B6EB0B0164EB00042B0D43EA82
:100470000C335E1844EB1C50DA465146E7FB020190
:10048000C5F313044FEA0B3343EA14534FEA043223
:10049000019C43EA0603A4F10C040294009CCDE9FC
:1004A00000B400F0A1F903B0BDE8F08F00200146D0
:1004B000F9E72DE9F04D81EA030404F0004B21F047
:1004C000004514464FF0000A23F0004150EA0502AF
:1004D00020D054EA01021DD0C5F30A570246C5F3E5
:1004E0001303C1F31300C1F30A5640F4801543F41B
:1004F0008013A7EB0608101BD64608F2FD3873EBF5
:10050000050002D308F1010801E092185B41B8F13F
:10051000000F03DA00200146BDE8F08D00204FF403
:100520008011064684460EE0171B73EB050705D3C2
:10053000121B63EB050306434CEA010C49084FEA22
:10054000300092185B4150EA0107EDD152EA0300F6
:1005500012D082EA040083EA0501084305D0101B8B
:10056000AB4106D20122002306E000224FF00043F7
:1005700002E06FF0010253101AEB06004CEB085139
:1005800010EB0A0041EB0B01BDE8F04D00F01DB986
:1005900070B521F0004303430CD0C1F30A55002489
:1005A000D5EB040564EB0403D617AD1AB34102DBA7
:1005B0000020014670BD201841EB025170BDC10FF3
:1005C00080EAE0700844CA079623002100F0CFB803
:1005D00096230022114600F0CAB80EB5C10F80EA7A
:1005E000E0700844CA07002140F233438DE80E0052
:1005F0000A460B4600F0F8F803B000BD00F00042D8
:1006000020F00040C10DC0F3160040F400007F2927
:1006100001DA00207047962903DCC1F19601C84039
:1006200001E096398840002AF4D04042704700F03B
:10063000004230F000400AD0C10D01F56071C0F3F6
:10064000160042EA0151C2084007114370470020DA
:100650000146704701F0004330B421F0004150EAF8
:10066000010206D00A0DA2F56072C1F31301002A3F
:1006700002DC30BC00207047440F44EAC104C100D2
:10068000E01830BC00EBC25000F068B830B50B4643
:10069000014600202022012409E021FA02F59D42B2
:1006A00005D303FA02F5491B04FA02F52844151E86
:1006B000A2F10102F1DC30BD2DE9F05F054600201A
:1006C00092469B4688460646814640241BE02846C3
:1006D000414647462246FFF727FD53465A46C01A71
:1006E000914110D311461846224600F016F82D1AF3
:1006F00067EB01084F4622460120002100F00DF86B
:1007000017EB00094E41201EA4F10104DFDC48462E
:1007100031462A464346BDE8F09F202A04DB203AB2
:1007200000FA02F1002070479140C2F1200320FA44
:1007300003F3194390407047202A06DBCB17203A79
:1007400041FA02F043EAE07306E041FA02F3D040D6
:10075000C2F1200291400843194670470029A8BF02
:100760007047401C490008BF20F00100704710B4DA
:10077000B0FA80FC00FA0CF050EA010404BF10BC8F
:10078000704749B1CCF1200421FA04F411FA0CF1BC
:1007900018BF012121430843A3EB0C01CB1D4FEAF5
:1007A00000614FEA102042BF002010BC704700EBF0
:1007B000C35010440029A4BF10BC7047401C49001E
:1007C00008BF20F0010010BC704710B5141E73F173
:1007D000000408DA401C41F1000192185B411A4301
:1007E00001D120F0010010BD2DE9F04D92469B464D
:1007F00011B1B1FA81F202E0B0FA80F220329046F3
:10080000FFF78BFF04460F4640EA0A0041EA0B015E
:1008100053465A46084313D0114653EA010019D0F3
:10082000C8F140025046FFF77FFC05460E46504691
:1008300059464246FFF771FF084305D0012004E006
:1008400020463946BDE8F08D0020054346EAE076B3
:100850002C4337430A986305E40AA0EB0800002202
:10086000FD0A44EA47540A3002D500200146E9E770
:10087000010510196941DDE9084500196941BDE824
:10088000F04DA2E7C1F30A52C1F3130140F2FF3366
:1008900041F480119A4202DA00200146704740F28A
:1008A00033439A42A2F2334202DC5242FFF73CBC8D
:1008B000FFF733BF30B5041E71F1000404DB4FF0C5
:1008C0000044404264EB0101141E73F1000405DB97
:1008D0001C464FF00043524263EB04038B4208BFB7
:1008E000824230BD30B5041E71F1000404DB4FF0CC
:1008F0000044404264EB0101141E73F1000405DB67
:100900001C464FF00043524263EB0403994208BF78
:10091000904230BD064C074D06E0E06840F0010310
:1009200094E8070098471034AC42F6D3FFF7E2FB97
:10093000A0430008C04300082DE9F041264CB4F95B
:100940000000FFF74AFE6FF00D052A46FFF720FE74
:10095000FFF780FE2061B4F90200FFF73EFE2A4651
:10096000FFF716FEFFF776FE06466061B4F9040055
:10097000FFF733FE2A46FFF70BFEFFF76BFEA06181
:10098000FFF755FE07460D463046FFF750FE3A4644
:100990002B4603F015FB0022104BFFF718FD104A01
:1009A000104BFFF786FDFFF755FE0546E061B4F9F1
:1009B0000600FFF712FE4FF066320B4BFFF779FD92
:1009C000FFF748FE206201462846E26800F032F850
:1009D0006062BDE8F08100001800002000806640E1
:1009E0001F85EB51B81E094066663040FEE70000E7
:1009F00010B54FF480710D4800F0D4F90C49002275
:100A000018B10A608A604A6010BD0868401C08601E
:100A10001E2808DB486808B10A6010BD0120886004
:100A2000C1E9002010BD8A6010BD0000000801402F
:100A3000040000202DE9F04117460E4C88460E4A6E
:100A40000B4E014610462660FFF7E8FB0546394687
:100A50004046FFF7E3FB6168FFF788FB3146FFF78D
:100A6000DDFB2946FFF782FB6060BDE8F0810000F6
:100A700048E17A3F1000002000D7A33C704772B6CF
:100A8000FEE7000004480068416A044A09B2916226
:100A9000002141627047000058010020180000202A
:100AA000064A10B5911E881E01F0E5FE034ABDE816
:100AB0001040921D911E881E01F0F5BE1C00002002
:100AC00010B590F821100022022905D0042181637D
:100AD00080F82020012010BD01680B6823F00E0370
:100AE0000B6001680B6823F001030B6090F8403045
:100AF000C46B012101FA03F3636080F8211080F8D0
:100B00002020104610BD000010B590F821100024E0
:100B1000022903D00421816301243DE001680A68B1
:100B200022F00E020A6001680A6822F001020A60DF
:100B30001A4A0168914201D1012121E0174A143279
:100B4000914201D110211BE0144A2832914201D177
:100B5000891515E0114A3C32914201D189140FE008
:100B60000E4A5032914202D14FF4803108E00B4AD4
:100B70006432914202D14FF4801101E04FF0807154
:100B8000064A083A5160012180F82110002180F8BE
:100B90002010416B01B18847204610BD080002407B
:100BA00070B5044600F010F90546601C02D00448F8
:100BB0000078044400F008F9401BA042FAD370BD4D
:100BC0005C0000202DE9F84FDFF8B8910024A9F16E
:100BD000040B23460F2709F1040AABF1040EC9E008
:100BE0000125A5402A40AA427DD1674ED1F804C014
:100BF000ACEB0608B44532D014DCBCF1030F3AD09C
:100C000009DCBCF1000F2AD0BCF1010F1CD0BCF1F3
:100C1000020F31D11DE0BCF1110F17D0BCF1120F42
:100C20002AD119E0B8F5881F19D006DCB8F5803F45
:100C300015D0B8F5801F1FD111E0B8F5001F0ED0F8
:100C4000B8F5041F18D10AE0CB6815E0CB681B1D6E
:100C500012E0CB6808330FE0CB680C330CE08B68F4
:100C60002BB1012B4FF0080303D0456104E00423AE
:100C700002E0056100E00023FF2A01D8064601E0FA
:100C800000F104064FEA840501D9A5F12005D6F844
:100C9000008007FA05FC28EA0C0803FA05F548EA83
:100CA0000508C6F800804D68ED0062D5374DAE6985
:100CB00046F00106AE61AD6924F0030605F00105BA
:100CC0000095334D06EB050CDCF80850A607360FEF
:100CD00007FA06F825EA0805DFF8B880404503D191
:100CE0004FF0000817E044E0DFF8AC80404502D147
:100CF0004FF001080FE0DFF8A480404502D14FF02B
:100D0000020808E0DFF89880404502D14FF0030860
:100D100001E04FF0040808FA06F848EA0508CCF8A4
:100D200008804D68D9F80060ED024D4601D51643A4
:100D300000E096432E604D68DAF80060AD0255463B
:100D400001D5164300E096432E604D68DBF8006045
:100D5000AD035D4601D5164300E096432E604D6815
:100D6000DEF80060ED03754601D5164300E09643BA
:100D70002E60641C0D682A46E5407FF431AFBDE863
:100D8000F88F00000804014000001110001002401C
:100D90000000014000080140000C0140001001402B
:100DA000001401408068084000D001207047C268EC
:100DB00021EA02030A4043EA0241016170470AB195
:100DC000016170470904FBE7014880687047000033
:100DD0005C00002070B5040025D094F83D0000258B
:100DE00020B984F83C50204600F078FA242084F89A
:100DF0003D002068016821F0010101602068016860
:100E000041F4004101602068016821F40041016063
:100E100000F0CAFB4D4A6168914201D84C4900E09C
:100E20004C49884201D2012070BD4B492368B0FB78
:100E3000F1F15E6826F03F060E435E606368934200
:100E400006D94FF4967359434FF47A73B1FBF3F11B
:100E50002368491C1E6A26F03F0631431962616807
:100E6000914210D84900401EB0FBF1F2521CC2F36F
:100E70000B02042A01D2042022E0B0FBF1F0401C56
:100E8000C0F30B001CE0A268F2B301EBC10303EB5B
:100E90000116431EB3FBF6F35B1C43F480431B05B2
:100EA00049D092B301EBC10202EB0111401EB0FB2D
:100EB000F1F0401CC0F30B0040F4804040F40040CF
:100EC0002168CA694CF6FF739A431043C861D4E99C
:100ED000071001432068026822F0C002114301603C
:100EE000D4E9030101432068826848F2FF339A4342
:100EF00011438160D4E9050108432168CA6822F0E2
:100F0000FF021043C86001E00EE016E020680168AF
:100F100041F0010101602564202084F83D00256333
:100F200084F83E50002070BD01EB4106431EB3FB28
:100F3000F6F35B1CB3E70120C2E701EB4101401E61
:100F4000B0FBF1F0401CC0F30B00B7E7A086010036
:100F500080841E0000093D0040420F002DE9FF4F34
:100F600083B00025DDE910799A4693460446DDF802
:100F700048800095FFF728FF064694F83D0020289A
:100F80007CD11923012285492046009601F06AFB95
:100F90000028F5D194F83C0001286FD0012084F896
:100FA0003C0020680168C90703D1016841F00101D4
:100FB00001602068016821F400610160222084F84A
:100FC0003D00402084F83E0025646762A4F82A9022
:100FD000608D20857248E062CDE9008653465A460E
:100FE0002046049901F040FA00287DD1208DDFF8D9
:100FF000B491202768B1012814D002282068016824
:101000001ED041F4806101602068416980690090D0
:10101000B6E02068416981690091016841F400717E
:101020000160ADE02068016821F48061016072B662
:101030002068416981690091016841F400710AE00A
:1010400041F40061016072B62068416981690091D4
:10105000016821F48061016062B691E0032868D8DC
:1010600001280CD0022843464FF000024946204692
:1010700000960FD001F0F6FAB0BB10E08BE03246DC
:101080004146204601F094FB70BB20680069616A0C
:1010900008706CE001F0E6FA30BB72B634E020680C
:1010A000016821F48061016072B620680069616A9C
:1010B0000870606A401C6062208D401E2085608D33
:1010C000401E6085384846F2A8110068B0FBF1F078
:1010D000C0EBC00000EB80000090401E009008D0E4
:1010E00020684069C04300E029E040070CD5009823
:1010F000F3E744F8305F6773A573206940F0200080
:10110000206162B625731AE02068016841F400711D
:10111000016020680069616A0870606A401C606252
:10112000218D491E2185618D491E618562B6216828
:101130001BE032464146204601F03AFB18B101203F
:1011400007B0BDE8F08F20680069616A0870606AC6
:10115000401C6062218D491E2185618D491E61857B
:1011600021684A69D24352070AD409690170606A4A
:10117000401C6062208D401E2085608D401E608571
:10118000208D00287FF46AAF84F83D7084F83E50CB
:1011900084F83C50D4E70220D2E70000020010009F
:1011A0000000FFFF04000100680000202DE9FF4F50
:1011B00083B09A46DDE9119793460446DDF84080F6
:1011C000FFF702FE054694F83D0020287FD1192341
:1011D000012240492046009501F044FA002876D1CA
:1011E00094F83C00012872D0012084F83C0020686B
:1011F0000168C90703D1016841F00101016020685D
:10120000016821F400610160212084F83D00402044
:1012100084F83E0000262664C4F82480A4F82A90AE
:10122000608D20852C48E062CDE9007553465A4612
:101230002046049901F096F970B930E02A46394603
:10124000204601F0EDFA58B1206C042804D1206842
:10125000016841F400710160012007B0BDE8F08F22
:10126000606A216800780861606A401C6062218DB4
:10127000491E89B22185628D521E6285226853699A
:10128000DB435B070BD469B100781061606A401CD6
:101290006062208D401E2085608D401E6085208DFF
:1012A0000028CBD12A463946204601F0AFF9002864
:1012B000CAD154F83D0B016841F40071016020204F
:1012C00004F81E09E67766770020C6E7FFE70220EC
:1012D000C3E70000020010000000FFFF10B586B059
:1012E0000021009101910291039100681349884205
:1012F00022D1134CA06940F00800A061A0696946A2
:1013000000F0080004904FF440700090122001900B
:10131000032003900B48FFF755FC0B48416841F050
:10132000E06141F002014160E06940F40010E061D9
:10133000E06900F40010049006B010BD00540040B5
:1013400000100240000C014000000140024881688A
:1013500002781144816070475C000020074810B596
:10136000016841F010010160032000F075F80F20C2
:1013700000F006F800F024F8002010BD0020024024
:1013800070B50D4D04464FF47A712878B1FBF0F03A
:101390000A490968B1FBF0F000F0DDFA48B9102CF9
:1013A00007D200222146501E00F036F800206C6063
:1013B00070BD012070BD00005C00002068000020AE
:1013C0000C4808B5816941F001018161816901F032
:1013D00001010091C16941F08051C161C06900F013
:1013E000805000900448416821F0E06141F00071B4
:1013F000416008BD0010024000000140002809DBE8
:1014000000F01F02012191404009800000F1E0201E
:10141000C0F8001170470000F0B40E4B1B680C467A
:10142000C3F30223C3F10705042D00D90425191DB8
:10143000072901D2002300E0DB1E012606FA05F190
:10144000491E214099409E40761E16403143F0BC13
:1014500001F0D8BF0CED00E0064900F00702086873
:101460004FF6FF03184040EA0220034A1043086089
:10147000704700000CED00E00000FA052DE9F04790
:101480000F46050061D0434E306800F00700B842B7
:1014900009D2306820F0070038433060306800F02F
:1014A0000700B84251D128683B4C810712D540074C
:1014B00003D5606840F4E06060602878000703D5D9
:1014C000606840F4605060606068A96820F0F000D7
:1014D000084360602878C00728D06868012810D0C9
:1014E0002168022810D0890700292EDA616821F0CE
:1014F000030101436160FFF767FC804641F28839D0
:101500000DE021688903EFE78901EDE7FFF75CFC57
:10151000A0EB0801494502D90320BDE8F0876068C7
:10152000696800F00C00B0EB810FEFD1306800F07B
:101530000700B8420BD9306820F00700384330600C
:10154000306800F00700B84201D00120E5E72878B4
:10155000400705D56068E96820F4E06008436060F2
:101560002878000706D56068296920F4605040EAB1
:10157000C100606000F038F86168084AC1F30311E7
:10158000515CC8400649086006480068FFF7F8FE4D
:101590000020C2E70020024000100240E64200089E
:1015A0006800002060000020044805490068496880
:1015B000044AC1F30221515CC84070476800002012
:1015C00000100240F64200080448054900684968D6
:1015D000044AC1F3C221515CC84070476800002032
:1015E00000100240F64200080E4A51680E4801F011
:1015F0000C03042B11D0082B0FD10C48C1F38343EB
:10160000C903C05C0AD55168084AC1F34041921E23
:10161000515C054A5043B0FBF1F070470449484320
:10162000704700000010024000127A00D642000805
:1016300000093D002DE9F84F040070D02078C04D1E
:10164000C00749D06868C0F38100012807D06868E6
:10165000C0F38100022809D16868C00306D5286854
:10166000800339D560680028E7D035E06068B0F5C0
:10167000803F0BD010B1B0F5A02F11D0286820F416
:1016800080302860286820F4802002E0286840F438
:1016900080302860606890B1FFF796FB06460AE04C
:1016A000286840F480202860F0E700BFFFF78CFB3B
:1016B000801B642873D828688003F7D50CE0FFF7F7
:1016C00083FB064605E000BFFFF77EFB801B642816
:1016D000F0D828688003F7D420789A4E80074FF01E
:1016E00001094FF0000839D5686810F00C0F07D0D9
:1016F0006868C0F38100022809D16868C00306D475
:101700002868800714D52069012808D110E02069D5
:10171000B0B1C6F80090FFF757FB074605E00AE1B5
:10172000FFF752FBC01B0228C4D828688007F7D5F2
:101730002868616920F0F80040EAC10028600DE0E7
:10174000C6F80080FFF740FB074604E0FFF73CFBCC
:10175000C01B022823D828688007F7D42078000708
:101760002CD57948A169D9B1C0F80090FFF72CFBBE
:10177000074604E0FFF728FBC01B02280FD8686A61
:101780008007F7D571484FF4FA510068B0FBF1F0CB
:10179000009000BF0098411E0091FAD20EE080E058
:1017A000C0F80080FFF710FB074604E0FFF70CFBD2
:1017B000C01B022875D8686A8007F7D420784007D4
:1017C00060D5E8690027C00008D4E86940F080507F
:1017D000E861E869012700F0805000905C480168EA
:1017E000C90513D40168834641F480710160FFF795
:1017F000EBFA824606E000BFFFF7E6FAA0EB0A002C
:1018000064284ED8DBF80000C005F5D5E068012853
:101810000AD008B1052813D0286A20F001002862F8
:10182000286A20F0040002E0286A40F001002862E3
:10183000E06841F2883B98B1FFF7C6FA82460BE0B8
:10184000286A40F004002862EEE700BFFFF7BCFA08
:10185000A0EB0A0159455AD8286A8007F6D50CE052
:10186000FFF7B2FA824605E0FFF7AEFAA0EB0A01F5
:1018700059454CD8286A8007F6D41FB1E86920F092
:101880008050E861E06988B36968C1F38101022989
:1018900044D00228C6F8608004D0FFF795FA0446C9
:1018A00038E034E0FFF790FA074604E0FFF78CFADF
:1018B000C01B02282BD828688001F7D4206AB0F515
:1018C000803F05D16868A16820F400300843686053
:1018D000D4E908010843696821F474110843686079
:1018E000C6F86090FFF770FA044606E025E000BFF6
:1018F000FFF76AFA001B022809D828688001F7D58B
:101900001BE000BFFFF760FA001B022802D903208A
:10191000BDE8F88F28688001F4D40EE00128F7D0E4
:101920006868226A00F48031914204D1616A00F44F
:101930007010884201D00120EAE70020E8E70000AB
:101940000010024000004242800442426800002031
:1019500000700040704710B5401EB0F1807F01D389
:10196000012010BD4FF0E02460610F21601701F0ED
:1019700049FD0020A06107202061002010BD10B5A6
:10198000FFF7E8FF10BD000070B590F83C20012A79
:1019900026D0012480F83C40022280F83D200368D4
:1019A0005A689D6822F070060A6832435A600D4BEF
:1019B00002689A4208D0B2F1804F05D00A4B9A4291
:1019C00002D00A4B9A4204D1496825F0800319439A
:1019D000916080F83D40002180F83C10084670BDC1
:1019E000022070BD002C01400004004000080040AF
:1019F00010B5040003D094F83D0010B107E00120B9
:101A000010BD002084F83C00204600F01FF80220A2
:101A100084F83D00211D206801F062FA012084F85D
:101A2000460084F83E0084F83F0084F8400084F8C3
:101A3000410084F8420084F8430084F8440084F8AC
:101A4000450084F83D00002010BD000008B5006886
:101A50000649884208D10648C16941F00201C161C6
:101A6000C06900F00200009008BD000000040040C2
:101A70000010024070B5044690F83C000025012893
:101A800017D0012684F83C60022084F83D002068CD
:101A9000826822F0770222F47F4282600868502830
:101AA00038D00DDC20284FD005DC90B3102811D1A0
:101AB0004AE0022070BD302846D040280AD13BE0E1
:101AC00060282FD070280DD0B0F5805F03D0B0F51E
:101AD000005F12D0012584F83D60002084F83C00AE
:101AE000284670BDCB68D1E90121206801F03BFA9E
:101AF0002068816841F0770109E0CB68D1E90121D4
:101B0000206801F030FA2068816841F480418160EA
:101B1000E1E719E0CA684968206801F0D9FA502164
:101B2000206806E0CA684968206801F0E2FA60218E
:101B3000206801F022FACEE7CA684968206801F0FF
:101B4000C7FA40212068F4E7226801461046F0E712
:101B50002DE9F0410D46040003D094F83D0018B182
:101B600008E00120BDE8F081002084F83C00204618
:101B700000F040F8022084F83D002068816844F2BB
:101B8000070291438160211D206801F0A9F92268B4
:101B900090689169166A2B68AF69034340F203307D
:101BA000814341EA0721A868EF6908434FF6FC41E9
:101BB0008843E96840EA0720014328692F6A000149
:101BC00040EA0730084369686D6926F0220646EA54
:101BD0000515294393602268906154F8460B016211
:101BE000012004F81F09E0752076E0762077A075C3
:101BF0000020B7E700B585B0002100910191029166
:101C0000039101681A48B1F1804F1BD0194A9142E3
:101C100016D1C16941F00401C161C16901F004013B
:101C20000491816941F0080181618069694600F091
:101C300008000490C02000900F4800BFFEF7C2FFCC
:101C400005B000BDC16941F00101C161C16901F088
:101C500001010491816941F0040181618069694653
:101C600000F004000490032000900448E6E7000020
:101C70000010024000080040000C01400008014034
:101C800070B590F83E60044690F83F5090F84230AE
:101C900090F84320022021B104290ED0012E1BD13F
:101CA00014E0012E18D1012B16D184F83E0084F8DF
:101CB000420001220021206820E0012D0CD1012AE0
:101CC0000AD184F83F0084F8430014E0012D03D1C9
:101CD000012B01D1012A01D0012070BD84F83E0002
:101CE00084F83F0084F8420084F843000122002178
:101CF000206801F02BF901220421206801F026F967
:101D00002068016841F001010160002070BD000001
:101D100000B585B000210091019102910391006806
:101D20000B49884211D10B48816941F0040181615E
:101D30008069694600F004000490C02000900220F1
:101D4000019003900448FEF73DFF05B000BD000080
:101D500000040040001002400008014070B5044635
:101D600090F83C0000260D4601280FD0012084F891
:101D70003C006AB1042A1DD0082A2FD00C2A3FD07B
:101D80000126002084F83C00304670BD022070BD62
:101D9000206801F0FBF82068816941F00801816149
:101DA0002068816921F004018161206881692A69C4
:101DB000114311E0206801F011F92068816941F4B4
:101DC000006181612068816921F4806181612068FE
:101DD00081692A6941EA02218161D2E7206801F024
:101DE00029F92068C16941F00801C1612068C16911
:101DF00021F00401C1612068C1692A69114311E021
:101E0000206801F043F92068C16941F40061C161B3
:101E10002068C16921F48061C1612068C1692A69B3
:101E200041EA0221C161ACE710B5040003D094F887
:101E30003D0010B107E0012010BD002084F83C00F7
:101E4000204600F01EF8022084F83D00211D206885
:101E500001F046F8012084F8460084F83E0084F83A
:101E60003F0084F8400084F8410084F8420084F880
:101E7000430084F8440084F8450084F83D000020C5
:101E800010BD704710B50446022249B104290ED096
:101E9000082913D094F84100012816D0012010BD64
:101EA00094F83E000128F9D184F83E200FE094F820
:101EB0003F000128F2D184F83F2008E094F8400068
:101EC0000128EBD184F8402001E084F84120012270
:101ED000206801F03BF80F492068884203D1426C2A
:101EE00042F4004242642068884208D0B0F1804F3A
:101EF00005D00949884202D00849884204D1816846
:101F000001F00701062903D0016841F001010160D9
:101F1000002010BD002C01400004004000080040DB
:101F200070477047F8B5016804460868CA684B698D
:101F300010F00F0F4FF0000559D003F0010602F426
:101F40009077374365D0C10705D0D10503D5616CC3
:101F500041F001016164410705D5D90703D0616CE7
:101F600041F002016164810705D5D90703D0616C96
:101F700041F004016164010707D502F020013143FB
:101F800003D0616C41F008016164616C00293AD0B2
:101F9000800604D5900602D5204601F0EBF82068B3
:101FA0004069616CC0F38010090700D460B320461B
:101FB00001F0B9F820684069400621D52068143046
:101FC00050E8001F21F0400140E80012002AF5D13E
:101FD000E06BA8B16D494163E06BFEF795FD002809
:101FE00011D0E06B416B01B0BDE8F04008478306BB
:101FF0000FD593060DD52046BDE8F84001F0BAB8DC
:102000002046FFF78EFFF8BD2046FFF78AFF656484
:10201000F8BD266B2023012E7CD1C6067AD5D606C4
:1020200078D508684868009048694FF00206400675
:1020300040D5E16B086840680004000CE8D0A28D30
:102040008242E5D9E085886920282DD020680C30AF
:1020500050E8001F21F4807140E80012002AF5D1F9
:102060002068143050E8001F21F0010140E8001200
:10207000002AF5D12068143050E8001F21F04001FB
:1020800040E80012002AF5D184F842302563206828
:102090000C3050E8001F21F0100140E80012002A27
:1020A000F5D1E06BFEF70CFD6663A08DE18D401A63
:1020B00081B22AE0A08DE18D401A81B2E08D002826
:1020C000A6D00029A4D022680C3252E8000F20F4D8
:1020D000907042E80007002FF5D12068143050E8D6
:1020E000002F22F0010240E80027002FF5D184F8EC
:1020F0004230256320680C3050E8002F22F0100297
:1021000040E80023002BF5D166632046FFF708FF67
:10211000F8BDFFE705062BD5150629D594F8410033
:102120002128F5D1A068B0F5805F01D12069B0B158
:10213000206A411C2162216800784860E08C401EC2
:102140000004000CE084E3D12068C16821F0800124
:10215000C1602068C16841F04001C160D8E7206AD1
:102160000088C0F308004860206A801C2062E5E710
:102170004006CDD55006CBD5CA68204622F0400295
:10218000CA6084F8413000F055F9C1E71731000802
:1021900070B5040004D094F84100002510B106E0A9
:1021A000012070BD84F84050204600F023F8242020
:1021B00084F841002068C16821F40051C1602046C4
:1021C00001F03AF82068016921F49041016120682A
:1021D000416921F02A0141612068C16841F4005140
:1021E000C1606564202084F8410084F84200656382
:1021F000002070BD70B586B0002400940194029454
:10220000039403682E482D4E022103220515B34284
:1022100026D1836943F480438361836903F4804357
:102220000493836943F0040383618069254E00F0C1
:10223000040004900802CDE900010392694630468B
:10224000FEF7C0FCCDE90054694630460294FEF723
:10225000B9FC002211462520FFF7DEF8252028E0F2
:10226000194EB34227D1C36943F48023C361C369C4
:1022700003F480230493836943F008038361806936
:10228000CDE9005100F00800CDE903200F4D69466B
:102290002846FEF797FCE814CDE900046946284675
:1022A0000294FEF78FFC002211462720FFF7B4F8B6
:1022B0002720FFF7A3F806B070BD000000380140EA
:1022C000001002400008014000480040000C01409E
:1022D00090F84230202B01D00220704721B11AB172
:1022E0000023036301F004B80120704770B51B4957
:1022F0000068096888422AD1194D1A4C28780128AB
:1023000009D101222946154800F07BF82168642094
:10231000486321688863287803280AD1012210497C
:102320000E4800F06EF821684FF4967048632168FB
:102330008863287808280AD101220949074800F053
:1023400060F821684FF44870486321688863BDE8ED
:102350007040012202490148FFF7BABFE80100209E
:1023600000000020100100202DE9F843044690F8F9
:1023700041001F4616460D46202802D00220BDE827
:10238000F8837DB176B100206064212084F841009B
:10239000FEF71AFDA6848046E684A068B0F5805F4B
:1023A00002D003E00120EAE7206910B12E460025A3
:1023B0000EE000260CE08021204600F0B4FFA0B91A
:1023C000AEB116F8010B21684860E08C401EE08435
:1023D000E08C43464FF0000200970028EBD14FF00D
:1023E0004001204600F09FFF30B10320C7E735F8D9
:1023F000020BC0F30800E6E7202084F8410000202B
:10240000BDE790F84130202B01D00220704779B110
:1024100072B101628284C28400214164212180F86A
:1024200041100068C16841F08001C1600020704720
:10243000012070477047FEE701684A69D2435205A0
:102440000FD46FF480624A61002140F8301F2022CF
:1024500042738173026942F0040202610173012038
:1024600070470020704700002DE9F84F04460068CF
:1024700089460B9D01689846174641F480610160CA
:102480002068016841F48071016000954FF0011BE4
:102490000022594620460A9B00F0E4F84FF4007AE7
:1024A00040B120680068C00501D5C4F840A00320F1
:1024B000BDE8F88F216809F0FE0008612B46284925
:1024C00020460A9A00F016F9F0BB2068416980693D
:1024D00000902A4620460A9900F0A2F940B1206CEB
:1024E00004283AD12068016841F40071016034E0A9
:1024F000FEB2B8F1010F09D02168380A08612A46F6
:1025000020460A9900F08CF90028E8D1206806617D
:102510002A4620460A9900F083F90028DFD1206876
:10252000016841F4807101600095002259462046FF
:102530000A9B00F097F80028B3D1216809F0FF004A
:1025400040F00100086100E007E02B460449204606
:102550000A9A00F0CFF80028AAD00120A8E70000CE
:10256000020001002DE9F843044600680D46DDE94C
:10257000089701689846164641F4807101604B4601
:1025800000224FF001112046009700F06BF848B18F
:1025900020680068C00502D54FF400702064032055
:1025A000BDE8F883216805F0FE0008613B464A4615
:1025B0001549204600F09EF888B920684169806975
:1025C00000903A464946204600F02AF948B1206C6E
:1025D000042804D12068016841F4007101600120E1
:1025E000DEE7F5B2B8F1010F09D02168300A0861C1
:1025F0003A464946204600F013F90028E7D1206802
:1026000005610020CCE700000200010070B516460D
:102610000D4604461EE02046FFF70EFF08B10120DC
:1026200070BD681C16D0FEF7CFFB801BA84200D8F7
:1026300085B920684069C04340070BD5002044F8A5
:10264000300F20216173A073216941F020012161C5
:102650002073E4E720684069C0434007DBD40020D2
:1026600070BD00002DE9F047984617460D46044618
:10267000C1F30746DDF820902AE000BFB8F1FF3F24
:1026800026D0FEF7A1FBA0EB0901414502D8B8F125
:10269000000F1DD12068012E16D0806925EA0000A8
:1026A0000004000C12D00020B84211D1002044F8E0
:1026B000300F20216173A073216941F02001216155
:1026C00020730120BDE8F0874069E7E70120EBE7D0
:1026D0002068012E0AD0806925EA00000004000C61
:1026E00006D00020B842C9D00020EBE74069F3E7EC
:1026F0000120F7E72DE9F047984616460D460446B7
:102700004FF000094FF0200AC1F3074723E020688B
:102710004069C043400515D42068016841F4007148
:10272000016021686FF480604861C4F8309084F8DB
:102730003DA084F83E90216C41F00401216484F8AE
:102740003C9021E0701C06D0FEF73EFBA0EB080099
:10275000B04203D816B1012F1FD021E02068012F0D
:1027600015D0806925EA00000004000C18D000BFD5
:1027700044F8309F84F80DA084F80E90216941F050
:102780002001216184F80C900120BDE8F0874069A8
:1027900025EA00000004000CEAD12068406901E04D
:1027A0002068806925EA00000004000CAFD1ECE746
:1027B0002DE9F041002590460E460446202728E0EA
:1027C0004069C043C0060CD454F8301B6FF01000B1
:1027D000486144F810596777A577206A2062257709
:1027E00014E0FEF7F1FAA0EB0800B04200D886B979
:1027F00020684069C04340060BD544F8305F6773DA
:10280000A573206940F02000206125730120BDE8F8
:10281000F08120684169C9434906D1D40020F6E718
:1028200070B516460D4604461EE02046FFF704FE2E
:1028300008B1012070BD681C16D0FEF7C5FA801BD8
:10284000A84200D885B920684069C04300060BD56E
:10285000002044F8300F20216173A073216941F0FA
:10286000200121612073E4E720684069C04300062D
:10287000DBD4002070BD7CB514460D4606466A4682
:1028800006213B2000F07EF800280BD1BDF8001097
:1028900049BA3180BDF8021049BA2980BDF8041048
:1028A00049BA21807CBD7CB514460D4606466A4671
:1028B0000621432000F066F800280BD1BDF8001077
:1028C00049BA3180BDF8021049BA2980BDF8041018
:1028D00049BA21807CBD000010B51C48FEF77AFA89
:1028E00080216B2000F098F800216B2000F094F814
:1028F000032000F05CF8002000F054F8322000F0D3
:1029000073F80021382000F087F800216A2000F0D9
:1029100083F80021232000F07FF88021372000F089
:102920007BF8752000F014F8682801D0012010BD54
:1029300001216B2000F070F800216C2000F06CF891
:10294000322000F051F8002010BD0000740000207B
:102950001FB500218DF80C1040F6FF73012203A96A
:102960008DE80E0013460246D1210548FEF7F6FA1F
:102970006420FEF715F99DF80C0004B010BD0000AE
:10298000740000200EB540F6FF730092CDE90113EC
:1029900002460123D1210248FEF7E0FA00200EBDD5
:1029A00074000020C006010E1C2000F035B8C006DF
:1029B000010E1B2000F030B8BC2801D3012110E02B
:1029C000622801D302210CE02A2801D3032108E068
:1029D000142801D3042104E00A2801D3052100E0D2
:1029E00006211A2000F018B810B504464FF47A708A
:1029F000844201D9044602E0042C00D20424B0FB36
:102A0000F4F0401EC1B2192000F006F86008BDE8DD
:102A10001040FFF7D1BF00001FB540F6FF738DF8DF
:102A20000C10012203A98DE80E0013460246D021A6
:102A30000448FEF7BBFB6420FEF7B2F804B00020A8
:102A400010BD0000740000202DE9F04786B000247E
:102A500030480094019402940394816941F010017C
:102A60008161816901F010010491816941F02001C7
:102A70008161816901F020010491816941F00401C3
:102A80008161816901F004010491816941F00801CB
:102A900081618069DFF880A000F0080004900022C6
:102AA00018215046FEF78BF9DFF8709000220321C1
:102AB0004846FEF784F94FF48058012241464846C3
:102AC000FEF77DF9182001250226CDE90005CDE9A4
:102AD000024669465046FEF775F8032700970396AD
:102AE000CDE9015469464846FEF76CF8CDF8008000
:102AF0000397CDE9015469464846FEF763F828027A
:102B00008DE8310069465046FEF75CF806B0BDE836
:102B1000F08700000010024000080140000C014056
:102B20000D4810B50B4901600C49416000214FF47C
:102B300080428160C0E9031241618161C16101622B
:102B4000FEF748F9002803D0BDE81040FDF797BF15
:102B500010BD00000054004074000020A086010059
:102B600010B58CB024216846FDF7F5FA002416480C
:102B700009944FF080410A94C0E900144FF6FF71A8
:102B8000C0E90241046184610320CDE90004012011
:102B9000CDE9020406210491CDE90540CDE90741C4
:102BA00069460948FEF7D4FF08B1FDF768FF0994AC
:102BB00009A905480A94FEF7E7FE002801D0FDF7B1
:102BC0005EFF0CB010BD0000C800002010B58EB034
:102BD00000240794089409940A940B941C216846D5
:102BE0000C94FDF7B8FA2348214901604721C0E958
:102BF000011440F2E731C0E903148461FEF7F8FEE6
:102C000008B1FDF73CFF4FF48050079007A9194821
:102C1000FEF730FF08B1FDF732FF1648FFF704F961
:102C200008B1FDF72CFF0B940BA912480C94FEF78A
:102C3000ABFE08B1FDF723FF6020009040F2F310D7
:102C4000CDE90104002269460A480494FFF786F89A
:102C500008B1FDF714FF042269460648FFF77EF825
:102C600008B1FDF70CFF0348FFF752F80EB010BD96
:102C7000000400401001002010B58CB024216846EB
:102C8000FDF769FA00241648099414490A94C0E92A
:102C900000144FF6FF71C0E9024104618461032012
:102CA000CDE900040120CDE9020406210491CDE91B
:102CB0000540CDE9074169460948FEF749FF08B1DB
:102CC000FDF7DDFE099409A905480A94FEF75CFEAC
:102CD000002801D0FDF7D3FE0CB010BD0008004065
:102CE000580100200C4810B50A4901604FF4E13149
:102CF0004160002181600C22C160C0E90412816141
:102D0000C161FFF745FA002803D0BDE81040FDF788
:102D1000B6BE10BD00380140A00100200C4810B51F
:102D20000A4901604FF4E1314160002181600C22C9
:102D3000C160C0E904128161C161FFF729FA00286E
:102D400003D0BDE81040FDF79ABE10BD004800401A
:102D5000E8010020FEE7FEE77047704770B50F4DB1
:102D60000F4E04000DD5012208212846FEF727F852
:102D7000002210212846FEF722F83168604288635D
:102D800070BD002208212846FEF719F80122102103
:102D90002846FEF714F83068846370BD00080140CF
:102DA000100100202DE9F041451A144F144C28461B
:102DB000FDF705FC2146FDF731FA124C0646E06AA4
:102DC000281AFDF7FCFB3946FDF728FA3146FDF7D6
:102DD000CDF9FDF713FCC4E90B50616B0844606347
:102DE000B0F57A7F02DB40F2E73003E010F57A7F3E
:102DF00001DC05486063BDE8F0810000000020416F
:102E00006666663F1800002019FCFFFF70B5184C7D
:102E100000252078401CC0B22070052804D32570FE
:102E2000FDF73EFEFDF788FD2078401CC0B2207003
:102E3000052803D32570FDF725FE10E00D4C012871
:102E400002D0022808D00AE00B4801680B4800684D
:102E5000FFF7A8FF206002E02068FFF77FFFFDF783
:102E6000C7FDFEF773FABDE87040FEF788BD0000AD
:102E70005400002040000020500000205800002096
:102E800030B58FB028216846FDF765F914210AA8EE
:102E9000FDF761F901210804CDE900100024029436
:102EA00002250491CDE907504FF4E01009906846DF
:102EB000FEF7C0FB08B172B6FEE70F20CDE90A05A8
:102EC0004FF48060CDE90C4002210AA80E94FEF771
:102ED000D5FA002801D072B6FEE70FB030BD7047BA
:102EE000F0B50268164B174C174D4FF080479842CB
:102EF00005D0B84203D0A04201D0A84203D122F0AD
:102F000070064A683243984205D0B84203D0A042C6
:102F100001D0A84203D122F44074CA6822434C690C
:102F200022F08002224302608A68C2620A688262DA
:102F3000984201D10969016301214161F0BD00009E
:102F4000002C0140000400400008004010B501F0D2
:102F50001F030121046A99408C430462016A9A406C
:102F60001143016210BD10B5846842EA032224F4C3
:102F70007F440A432243826010BD826822F07002BF
:102F80000A4342F0070181607047000030B5036AD0
:102F9000026A22F0010202624268846924F0730529
:102FA0000C682C4323F002058B682B430A4DA84282
:102FB0000BD123F00805CB6822F440722B434D69F6
:102FC00023F0040315438A692A43426084614968F7
:102FD0004163036230BD0000002C014030B5026A3D
:102FE000036A23F010030362436884690D6824F4C4
:102FF000E64444EA05248D6822F0200242EA0512E4
:103000000B4DA8420ED1CD6822F0800242EA051293
:103010004D6923F4406343EA85038D6922F0400241
:1030200043EA85034360846149688163026230BD7D
:10303000002C014030B5036A026A22F480720262F9
:103040004268C46923F4007324F073050C682C43B0
:103050008D6843EA05230C4DA8420ED1CD6823F4B8
:10306000006343EA05234D6922F4405242EA051207
:103070008D6923F4806342EA05124260C4614968A5
:10308000C163036230BD0000002C014030B5046A0A
:10309000026A22F4805202624268C3690D6823F416
:1030A000E64343EA05238D6824F4005444EA0534DA
:1030B000064DA84204D14D6922F4804242EA8512AD
:1030C0004260C36149680164046230BD002C014064
:1030D00010B5036A046A24F001040462846924F0D0
:1030E000F00444EA021423F00A020A4384610262F3
:1030F00010BD10B5036A046A24F0100404628469E8
:1031000023F0A00324F4704444EA023243EA01119C
:103110008261016210BD10B5406A0021C185C18481
:10312000FEF7FFFE10BD01680C3151E8002F22F4BC
:10313000907241E80023002BF5D10168143151E869
:10314000002F22F0010241E80023002BF5D1016B92
:10315000012909D101680C3151E8002F22F0100239
:1031600041E80023002BF5D1202180F842100021F6
:103170000163704708B590F84210222901D002205F
:1031800008BD82684FF480539A4201D1016921B190
:10319000816A9A421BD04AB10AE00268816A526889
:1031A000C2F308020A80816A891C08E0026972B1D0
:1031B0000268526802F07F020A70816A491C8162CB
:1031C000C18D491E0904090CC18503D01BE00268AA
:1031D0005268F1E70168CA6822F02002CA600168FB
:1031E000CA6822F48072CA6001684A6922F001024A
:1031F0004A61202180F8421000214163026B012ABC
:1032000003D0FFF773F8002008BD016301680C319B
:1032100051E8002F22F0100241E80023002BF5D1E5
:1032200001680A68D20602D50A6849680091818D52
:10323000FEF776FEE7E7000070B504460068016916
:10324000E26821F44051114301612169A0680843FB
:10325000616908432168CA6841F20C639A430243DA
:10326000CA6020684169A26921F44071114341613B
:103270001E492068884202D1FEF7A6F901E0FEF758
:1032800093F900EBC00101EB00126068642180003B
:10329000B2FBF0F3B3FBF1F36FF018067343B2FB2C
:1032A000F0F5B2FBF0F605EB8305322303EB0515D1
:1032B000B5FBF1F5B6FBF1F605F0F00505EB0615EB
:1032C000B2FBF0F6B2FBF0F0B0FBF1F06FF01802D9
:1032D000504306EB800003EB0010B0FBF1F02168D7
:1032E00000F00F002844886070BD000000380140E5
:1032F00081628285C28500214164222180F84210CA
:10330000016921B10168CA6842F48072CA6001682B
:103310004A6942F001024A610068C16841F0200137
:10332000C160002070472DE9F041984617460E46CF
:103330000446069D27E0681C25D02DB1FDF744FD0D
:10334000A0EB0800A8421ED920680C3050E8001FEE
:1033500021F4D07140E80012002AF5D12068143021
:1033600050E8001F21F0010140E80012002AF5D1C9
:10337000202084F8410084F84200002084F84000B6
:103380000320BDE8F0812068006836EA000004D020
:103390000020B842CFD00020F3E70120F9E7000079
:1033A0000148FEF7BFBD0000A00100200148FEF764
:1033B000B9BD0000E8010020FEE700000FB4054B96
:1033C00010B503A9044A029800F066F910BC5DF834
:1033D00014FB00005D4100086C000020490050EA29
:1033E000C12018BF04204A0D18BF40F0010040F270
:1033F000FF72B2EB515F08BF40F00200012808BF26
:10340000052070470907090E002804DB00F1E020C1
:1034100080F80014704700F00F0000F1E02080F801
:10342000141D70472DE9F0414F1E00EBC701044603
:10343000D1E9000115461E4637F006020DD02A4696
:103440003346FCF7C4FF7F1E04EBC703D3E9002318
:10345000FCF716FF37F00602F1D1022F25D0042F1A
:1034600013D0062F18BFBDE8F0812A463346FCF77B
:10347000AEFFD4E90A23FCF703FF2A463346FCF7E4
:10348000A6FFD4E90823FCF7FBFE2A463346FCF7E7
:103490009EFFD4E90623FCF7F3FE2A463346FCF7E9
:1034A00096FFD4E90423FCF7EBFE2A463346FCF7EB
:1034B0008EFFD4E90223FCF7E3FE2A463346FCF7ED
:1034C00086FFD4E90023BDE8F041FCF7D9BE012214
:1034D000FDF75EB8FCF7D4BE024A00201107FDF7E5
:1034E00057B8000001FDFFFF02E008C8121F08C125
:1034F000002AFAD170477047002001E001C1121F75
:10350000002AFBD1704700000149086070470000A5
:10351000700000202DE9FF5F82B00021DDE904305A
:10352000020DDDF840B0034318D044F61050A2F26B
:10353000FF3242431514119801281FD0A5EB0B0050
:10354000401C5FEA000A4FF000064E4FDFF838914A
:10355000B046504615D5CAF1000413E01198012475
:103560004AA3012801D16FEA0B010298119AC0E920
:103570000031C0E9024206B0BDE8F09FCBF1000087
:10358000DFE704460021404A491842EB0450CDE9E8
:10359000001012E0E00707D032463B46404649465D
:1035A000FCF715FF8046894632463B4610461946D1
:1035B000FCF70DFF06460F466410002CEAD1DDE94A
:1035C0000401DDE90023BAF1000F06DAFCF7FFFE83
:1035D00042464B46FCF7FBFE05E0FCF76AFF42461D
:1035E0004B46FCF766FF04460E460022284BFDF7CB
:1035F00079F903D84FF0FF30014607E00022254B50
:1036000020463146FCF73CFEFDF73CF9102409E06A
:10361000002C0ADB0A220023FDF74EF8039B303210
:103620001A55641E50EA0102F2D1641C039AC4F1D7
:1036300011031444119A012A03D0012208430DD129
:103640000AE0084304D000204FF0110B119072E7FC
:10365000A3EB0B056D1E0DE05B4504DD4FF0000292
:1036600005F1010504E003DA4FF00002A5F10105C0
:10367000002AECD002981199C0E90231C0E9004556
:1036800079E70000000014400000F03F3000000027
:103690000000F0430000E03F2DE9FF4F95B09A464F
:1036A000884606460025EEE1252877D100242746E6
:1036B000F94A0121039400E0044316F8013F203B3E
:1036C00001FA03F01042F7D130782A2811D06FF0B8
:1036D0002F033078A0F13002092A16D8039A44F05B
:1036E000020402EB820203EB42021044761C0390B8
:1036F000EFE758F8042B0392002A03DA504244F40F
:103700000054039044F00204761C30782E2816D121
:1037100016F8010F44F004042A280DD06FF02F0290
:103720003078A0F13003092B09D807EB870302EBAF
:103730004303C718761CF3E758F8047B761C3078EF
:103740006C280FD006DC4C2817D068280DD06A28CA
:1037500014D104E0742810D07A280FD10DE044F47D
:1037600000140AE044F4801401E044F44014727838
:10377000824202D104F58014761C761C30786628CB
:103780000BD013DC582877D009DC002875D04528E9
:10379000F6D04628F4D047281AD193E118E06328E0
:1037A00035D0642879D0652812D18BE1702873D088
:1037B00008DC6728F1D069286FD06E280DD06F28FB
:1037C00006D1ACE073282CD0752874D0782853D05B
:1037D0005246179990476D1C54E1C4F302500228D9
:1037E00009D003280DD0D8F8001004280DD00D60A2
:1037F00008F1040846E1D8F80010EA17C1E90052C0
:10380000F6E7D8F800100D80F2E70D70F0E718F831
:10381000041B8DF8001000208DF80100EB460120FC
:1038200003E058F804BB4FF0FF3061074FF0000190
:1038300002D40DE009F101018946B9420FDA814550
:10384000F8DB1BF809100029F4D108E009F10101A7
:1038500089468142FADB1BF809100029F6D103984A
:103860005346A0EB090721463846179A00F080FA24
:10387000284400EB090507E044E008E10DE01BF8EF
:10388000010B524617999047B9F10109F7D25346F7
:1038900021463846179AF2E039E00A21C4F3025271
:1038A0004FF0000B0091022A06D058F8040BC11704
:1038B000032A09D00AE023E008F1070020F00702FC
:1038C000F2E80201904605E000B2C117042A01D1D6
:1038D00040B2C117002906DA0A460021404261EBD6
:1038E00002012D2202E0220504D52B228DF80420AE
:1038F000012203E0E20701D02022F7E7914657E0DA
:103900000A2100E010214FF0000B00910BE0102184
:103910004FF0000B44F004040827009103E0082056
:103920004FF0000B0090C4F30252022A05D058F861
:10393000040B0021032A08D008E008F1070020F05A
:103940000702F2E80201904603E080B2042A00D1A7
:10395000C0B24FF0000922072AD53278702A07D06A
:10396000DDF800C08CF0100C5CEA0B0C05D00EE00A
:1039700040228DF80420012208E050EA010306D01D
:1039800030238DF804308DF8052002229146009BEB
:1039900083F0080353EA0B030AD150EA010201D174
:1039A000620705D530228DF804204FF001097F1EF3
:1039B0003278582A04D039A20C920CAA02920BE059
:1039C0003BA2F9E75B46009AFCF776FE0C9B9B5CFA
:1039D000029A521E0292137050EA0102F2D102982A
:1039E00004A9081A00F1200B600702D524F48034E2
:1039F00000E001275F4502DDA7EB0B0000E000209F
:103A000000EB0B01009003984944401A0390E00337
:103A100006D453462146179A039800F0A9F90544A5
:103A2000002706E001A85246C05D179990476D1C1B
:103A30007F1C4F45F6DBE0030CD553462146179A11
:103A4000039800F095F9054404E030205246179998
:103A500090476D1C0099481E00900029F5DC08E095
:103A60000298029952460078491C02911799904792
:103A70006D1CBBF10001ABF1010BF1DC5BE100F06F
:103A800065F90544761C307800287FF40DAE19B036
:103A90002846BDE8F08F000009280100303132339C
:103AA000343536373839616263646566000000007A
:103AB0003031323334353637383941424344454664
:103AC00000000000600700D4062708F1070020F07E
:103AD0000700F0E80223804603F0004C5FEA0C0088
:103AE00001D097A009E0200501D596A005E0E007E8
:103AF00001D095A001E0AFF24C001390307823F094
:103B0000004365280CD006DC452809D046281DD086
:103B100047287FD13BE0662818D067287AD136E065
:103B20000021112F01DB112000E0781CCDE90001FC
:103B300004A90CA8FFF7EEFCDDE90D010C9A4FF08B
:103B4000000B07F10109109200914EE04FF0004088
:103B50000097CDE9011004A90CA8FFF7DBFCDDE913
:103B60000D020C9B0F994FF0000B914610930092A1
:103B700011B9791C00EB0109B7EB090003D4C0F1BE
:103B8000FF3B07F10109A9EB0700019042E0012F7B
:103B900000DA01270021112F01DD112000E0384655
:103BA000CDE9000104A90CA8FFF7B4FCDDE90D0183
:103BB0000C9A00914FF0000BB946109221070FD4D8
:103BC000009A4A4503DA914601E0A9F10109B9F1E9
:103BD000010F05DD109AA9F10101515C3029F4D0E3
:103BE000B84202DA10F1040F03DA0121CDE9011025
:103BF00010E0002803DC8344A9EB000102E0411C33
:103C0000494500DD8946A0EB0B00401C01904FF0B8
:103C100000400290200705D40198484502DB4FF090
:103C2000FF30019000208DF84B0002980DF14B07FA
:103C3000B0F1004F25D002200C902B200D9002985F
:103C400000280CDA404202902D200D9007E00A2156
:103C50000298FCF71BFD3031029007F8011D0C990A
:103C6000481E0C900029F2DC02980028EFD1791E42
:103C70000D980870307800F0200040F0450007F8FB
:103C8000020D11A8C01BC01D02901398007800B14E
:103C9000012000EB0901019801EBE0710298014459
:103CA0000398401A401E0390E00306D45346214671
:103CB000179A039800F05CF805441398007818B13F
:103CC0005246179990476D1CE00323D55346214671
:103CD000179A039800F04CF805441BE0BBF1000F65
:103CE00007DB0098584504DD1098179910F80B0071
:103CF00001E0179930205246904701980BF1010BD3
:103D0000401E05F10105019004D12E20524617995D
:103D100090476D1CB9F10001A9F10109DEDC05E055
:103D200017F8010B5246179990476D1C0299481ECF
:103D300002900029F4DC53462146179A03989EE628
:103D40002D0000002B000000200000002DE9F041B4
:103D5000044600251E461746880404D405E039466B
:103D60002020B0476D1C641EF9D52846BDE8F081BF
:103D70002DE9F041044600251E469046C80301D5B2
:103D8000302700E02027880404D505E04146384666
:103D9000B0476D1C641EF9D52846BDE8F0810000CF
:103DA0002DE9F84F04460D4621F00040009173497B
:103DB000814211DC7249884201DC06D12CB12046D7
:103DC0002946BDE8F84FFFF782BB6E48002DCCBFF7
:103DD0006D496E49BDE8F88F6D49814211DD6D492D
:103DE0008142D8BF4FF0FF366DDD20462946FFF7F0
:103DF000F5FA042808BFFFF76FFB20462946BDE807
:103E0000F88F6549654F25F00045814233DD6449EF
:103E1000814219DD002632464FF080432046294674
:103E2000FCF72EFA80468A46012220462946FCF7F6
:103E3000AFFB00223B46FCF7C4FA42465346FCF770
:103E400038FB04460D463EE001260022BA463B46BA
:103E500020462946FCF714FA80460F4600225346B6
:103E600020462946FCF7ADFA42463B46FCF721FBCB
:103E700004460D4627E04B4981421BDDDFF828A1AF
:103E800002260022534620462946FCF7A0FA0022CB
:103E90003B46FCF7F5F980460F4600225346204684
:103EA0002946FCF78EFA42463B46FCF702FB0446E5
:103EB0000D4608E0032622462B4600203B49FCF72E
:103EC000F8FA04460D4622462B4610461946FCF7E2
:103ED0007EFA8B46824602460B46FCF778FA074686
:103EE0000246334888460B4606217844FFF79AFA83
:103EF00052465B46FCF76BFA82462E488B463A46A2
:103F0000434605217844FFF78DFA3A464346FCF7CD
:103F10005EFA02460B46002E504659460CDAFCF774
:103F2000AFF922462B46FCF752FA01B022462B4647
:103F3000BDE8F04FFCF748BAFCF7A2F922462B4641
:103F4000FCF745FA1C4A7A4402EBC603D3E9002386
:103F5000FCF737FA22462B46FCF733FA174A7A4425
:103F600002EBC603D3E90023FCF72EFA009A002ADD
:103F7000B8BF81F00041BDE8F88F00000000104498
:103F80000000F07F182D4454FB21F93FFB21F9BFBD
:103F90000000DC3F0000203E0000F33F0000F03F47
:103FA0000000E63F008003400000F83F0000F0BF43
:103FB0007A04000038040000D60300009E030000CD
:103FC0002DE9F04D9446CCF1000423F000464CEA74
:103FD0000404594F46EAD4749A46884621F00042B8
:103FE000BC4206D8454240EA050442EAD474BC42C9
:103FF00004D9BDE8F04D6246FFF76CBAAAF140550E
:10400000A5F17F6555EA0C040BD0022404EAAA74DA
:104010004A4DDFF82CE144EAD87452EA000B04D090
:104020000CE0BDE8F04DFFF7BBBE002C14BF012C27
:10403000BDE8F08D022C30D0032C32D056EA0C0BA8
:104040000AD0BE4220D1BA4209D126F0804622F0E1
:1040500080423346114617E000291ADB25E0DFF8DD
:10406000E4B0FB44002C04BFDBE90001BDE8F08DA7
:10407000012C02BFDBE9000181F00041BDE8F08DB9
:10408000022C0AD0032C0CD0BA4212D1B8F1000F86
:104090000BDA2A482C49BDE8F08D28462B49BDE8AB
:1040A000F08D28467146BDE8F08D24482849BDE8CA
:1040B000F08D921B12153C2AC4BF204F244E10DCF9
:1040C000BAF1000FBEBF12F13C0F00273E4608DBDD
:1040D0006246FCF7EEF921F00041FFF761FE07466A
:1040E0000E4694B1012C08BF86F000460DD0194A47
:1040F000194B022C3846314615D0FCF762F92A4696
:10410000BDE8F04D114BFCF75CB900221346384670
:104110003146FCF7CFFB04BF0220FFF7F5F9384624
:104120003146BDE8F08DFCF74CF92A46BDE8F04D6C
:10413000064BFCF749B900000000F07F182D4454ED
:10414000FB2109C032030000FB21F9BFFB2109401C
:10415000FB21F93F075C143326A6A13C13B54FF6AB
:10416000FF73012269460248FEF7FEF800981CBD65
:10417000A00100201CB5FDF7F1F8FEF781FEFEF767
:1041800063FCFEF7AFFDFEF777FDFEF71FFDFEF7C0
:10419000C7FCFEF7E5FCFEF7C1FD012235493648B4
:1041A000FEF796F83C213548FDF76AFD3C2134487E
:1041B000FDF766FD00213348FDF764FE0421314818
:1041C000FDF760FE304F012208213846FCF7F7FD6D
:1041D000002210213846FCF7F2FDFEF77DFB10B9F6
:1041E0002AA0FFF7EBF8DFF8B890DFF8B8B0DFF8F7
:1041F000B8A02E4E4FF48058D9F80000FCF717FAFB
:1042000002460B462AA0FFF7D9F84FF4FA70FCF7E4
:10421000C7FC4446414655465046FCF7C8FDDBF80E
:104220000000012811D100BF4FF480713846FCF71F
:10423000B9FD0028F8D0306821460A3030602846A1
:10424000FCF7B5FD0A20FCF7ABFC3068FCF7B7F9CA
:10425000FCF7EDF904461B480D460068FCF7B8F979
:10426000FCF7E5F902460B4617A0CDE90045FFF73C
:10427000A5F8C1E700000020E80100205801002057
:10428000C800002010010020000801406D70753644
:10429000303530206F6E2072656164790000000057
:1042A0003C0000200C000020000C014050000020C9
:1042B000E5B08FE8BDA6E8A792E5BAA6203D202587
:1042C000660000005800002024252E316620252E8F
:1042D00031663B00010202030405060708090A0BC8
:1042E0000C0D0E0F10100000000000000000010275
:1042F000030406070809000000000102030400008F
:104300004FBB610567ACDD3F182D4454FB21E93FED
:104310009BF681D20B73EF3F182D4454FB21F93FDC
:10432000E2652F227F2B7A3C075C143326A6813C62
:10433000BDCBF07A8807703C075C143326A6913C0D
:10434000C4EB98999999C9BF711623FEC671BCBF79
:104350006D9A74AFF2B0B3BF9AFDDE522DDEADBFE1
:104360002F6C6A2C44B4A2BF0D5555555555D53FF9
:10437000FF8300922449C23F6E204CC5CD45B73F14
:10438000513DD0A0660DB13FEB0D76244B7BA93F8C
:1043900011DA22E33AAD903F000000000000000077
:1043A000C04300080000002074000000E83400084A
:1043B0003444000874000020BC050000F8340008F4
:1043C00000000000000000000000000000000000ED
:1043D00000000000000000000000000000000000DD
:1043E000000000000AD7A33B00000000000000000E
:1043F00000000000000000000000000000000000BD
:1044000000000000000000000000000000000000AC
:10441000000000000000000000000000010000009B
:1044200010000000000000000024F4000000000064
:044430000000000088
:04000005080000ED02
:00000001FF
